{
  "_format": "hh-sol-artifact-1",
  "contractName": "SecureScholarSeal",
  "sourceName": "contracts/SecureScholarSeal.sol",
  "abi": [
    {
      "inputs": [
        {
          "internalType": "address",
          "name": "_verifier",
          "type": "address"
        },
        {
          "internalType": "address",
          "name": "_institutionManager",
          "type": "address"
        }
      ],
      "stateMutability": "nonpayable",
      "type": "constructor"
    },
    {
      "anonymous": false,
      "inputs": [
        {
          "indexed": true,
          "internalType": "uint256",
          "name": "recordId",
          "type": "uint256"
        },
        {
          "indexed": true,
          "internalType": "address",
          "name": "student",
          "type": "address"
        },
        {
          "indexed": false,
          "internalType": "string",
          "name": "institution",
          "type": "string"
        }
      ],
      "name": "AcademicRecordAdded",
      "type": "event"
    },
    {
      "anonymous": false,
      "inputs": [
        {
          "indexed": true,
          "internalType": "uint256",
          "name": "credentialId",
          "type": "uint256"
        },
        {
          "indexed": true,
          "internalType": "address",
          "name": "owner",
          "type": "address"
        },
        {
          "indexed": false,
          "internalType": "string",
          "name": "credentialType",
          "type": "string"
        }
      ],
      "name": "CredentialIssued",
      "type": "event"
    },
    {
      "anonymous": false,
      "inputs": [
        {
          "indexed": true,
          "internalType": "uint256",
          "name": "profileId",
          "type": "uint256"
        },
        {
          "indexed": true,
          "internalType": "address",
          "name": "scholar",
          "type": "address"
        },
        {
          "indexed": false,
          "internalType": "string",
          "name": "name",
          "type": "string"
        }
      ],
      "name": "ProfileCreated",
      "type": "event"
    },
    {
      "anonymous": false,
      "inputs": [
        {
          "indexed": true,
          "internalType": "address",
          "name": "user",
          "type": "address"
        },
        {
          "indexed": false,
          "internalType": "uint32",
          "name": "reputation",
          "type": "uint32"
        }
      ],
      "name": "ReputationUpdated",
      "type": "event"
    },
    {
      "anonymous": false,
      "inputs": [
        {
          "indexed": true,
          "internalType": "uint256",
          "name": "requestId",
          "type": "uint256"
        },
        {
          "indexed": false,
          "internalType": "bool",
          "name": "isApproved",
          "type": "bool"
        },
        {
          "indexed": true,
          "internalType": "address",
          "name": "verifier",
          "type": "address"
        }
      ],
      "name": "VerificationProcessed",
      "type": "event"
    },
    {
      "anonymous": false,
      "inputs": [
        {
          "indexed": true,
          "internalType": "uint256",
          "name": "requestId",
          "type": "uint256"
        },
        {
          "indexed": true,
          "internalType": "address",
          "name": "requester",
          "type": "address"
        },
        {
          "indexed": false,
          "internalType": "string",
          "name": "requestType",
          "type": "string"
        }
      ],
      "name": "VerificationRequested",
      "type": "event"
    },
    {
      "inputs": [
        {
          "internalType": "uint256",
          "name": "",
          "type": "uint256"
        }
      ],
      "name": "academicRecords",
      "outputs": [
        {
          "internalType": "euint32",
          "name": "recordId",
          "type": "bytes32"
        },
        {
          "internalType": "euint32",
          "name": "gpa",
          "type": "bytes32"
        },
        {
          "internalType": "euint32",
          "name": "creditHours",
          "type": "bytes32"
        },
        {
          "internalType": "euint32",
          "name": "semesterCount",
          "type": "bytes32"
        },
        {
          "internalType": "bool",
          "name": "isGraduated",
          "type": "bool"
        },
        {
          "internalType": "string",
          "name": "degreeType",
          "type": "string"
        },
        {
          "internalType": "string",
          "name": "major",
          "type": "string"
        },
        {
          "internalType": "string",
          "name": "institution",
          "type": "string"
        },
        {
          "internalType": "address",
          "name": "student",
          "type": "address"
        },
        {
          "internalType": "uint256",
          "name": "enrollmentDate",
          "type": "uint256"
        },
        {
          "internalType": "uint256",
          "name": "graduationDate",
          "type": "uint256"
        }
      ],
      "stateMutability": "view",
      "type": "function"
    },
    {
      "inputs": [
        {
          "internalType": "address",
          "name": "student",
          "type": "address"
        },
        {
          "internalType": "string",
          "name": "degreeType",
          "type": "string"
        },
        {
          "internalType": "externalEuint32",
          "name": "gpa",
          "type": "bytes32"
        },
        {
          "internalType": "bytes",
          "name": "inputProof",
          "type": "bytes"
        }
      ],
      "name": "addAcademicRecord",
      "outputs": [
        {
          "internalType": "uint256",
          "name": "",
          "type": "uint256"
        }
      ],
      "stateMutability": "nonpayable",
      "type": "function"
    },
    {
      "inputs": [
        {
          "internalType": "string",
          "name": "_name",
          "type": "string"
        },
        {
          "internalType": "string",
          "name": "_institution",
          "type": "string"
        },
        {
          "internalType": "string",
          "name": "_specialization",
          "type": "string"
        },
        {
          "internalType": "externalEuint32",
          "name": "academicScore",
          "type": "bytes32"
        },
        {
          "internalType": "bytes",
          "name": "inputProof",
          "type": "bytes"
        }
      ],
      "name": "createScholarProfile",
      "outputs": [
        {
          "internalType": "uint256",
          "name": "",
          "type": "uint256"
        }
      ],
      "stateMutability": "nonpayable",
      "type": "function"
    },
    {
      "inputs": [],
      "name": "credentialCounter",
      "outputs": [
        {
          "internalType": "uint256",
          "name": "",
          "type": "uint256"
        }
      ],
      "stateMutability": "view",
      "type": "function"
    },
    {
      "inputs": [
        {
          "internalType": "uint256",
          "name": "",
          "type": "uint256"
        }
      ],
      "name": "credentials",
      "outputs": [
        {
          "internalType": "euint32",
          "name": "credentialId",
          "type": "bytes32"
        },
        {
          "internalType": "euint32",
          "name": "score",
          "type": "bytes32"
        },
        {
          "internalType": "euint32",
          "name": "validityPeriod",
          "type": "bytes32"
        },
        {
          "internalType": "bool",
          "name": "isRevoked",
          "type": "bool"
        },
        {
          "internalType": "bool",
          "name": "isVerified",
          "type": "bool"
        },
        {
          "internalType": "string",
          "name": "credentialType",
          "type": "string"
        },
        {
          "internalType": "string",
          "name": "issuer",
          "type": "string"
        },
        {
          "internalType": "string",
          "name": "metadataHash",
          "type": "string"
        },
        {
          "internalType": "address",
          "name": "owner",
          "type": "address"
        },
        {
          "internalType": "uint256",
          "name": "issuedAt",
          "type": "uint256"
        },
        {
          "internalType": "uint256",
          "name": "expiresAt",
          "type": "uint256"
        }
      ],
      "stateMutability": "view",
      "type": "function"
    },
    {
      "inputs": [
        {
          "internalType": "uint256",
          "name": "recordId",
          "type": "uint256"
        }
      ],
      "name": "getAcademicRecordEncryptedData",
      "outputs": [
        {
          "internalType": "bytes32",
          "name": "gpa",
          "type": "bytes32"
        },
        {
          "internalType": "bytes32",
          "name": "creditHours",
          "type": "bytes32"
        },
        {
          "internalType": "bytes32",
          "name": "semesterCount",
          "type": "bytes32"
        },
        {
          "internalType": "bool",
          "name": "isGraduated",
          "type": "bool"
        },
        {
          "internalType": "string",
          "name": "degreeType",
          "type": "string"
        },
        {
          "internalType": "string",
          "name": "major",
          "type": "string"
        },
        {
          "internalType": "string",
          "name": "institution",
          "type": "string"
        },
        {
          "internalType": "address",
          "name": "student",
          "type": "address"
        },
        {
          "internalType": "uint256",
          "name": "enrollmentDate",
          "type": "uint256"
        },
        {
          "internalType": "uint256",
          "name": "graduationDate",
          "type": "uint256"
        }
      ],
      "stateMutability": "view",
      "type": "function"
    },
    {
      "inputs": [
        {
          "internalType": "uint256",
          "name": "recordId",
          "type": "uint256"
        }
      ],
      "name": "getAcademicRecordInfo",
      "outputs": [
        {
          "internalType": "uint8",
          "name": "gpa",
          "type": "uint8"
        },
        {
          "internalType": "uint8",
          "name": "creditHours",
          "type": "uint8"
        },
        {
          "internalType": "uint8",
          "name": "semesterCount",
          "type": "uint8"
        },
        {
          "internalType": "bool",
          "name": "isGraduated",
          "type": "bool"
        },
        {
          "internalType": "string",
          "name": "degreeType",
          "type": "string"
        },
        {
          "internalType": "string",
          "name": "major",
          "type": "string"
        },
        {
          "internalType": "string",
          "name": "institution",
          "type": "string"
        },
        {
          "internalType": "address",
          "name": "student",
          "type": "address"
        },
        {
          "internalType": "uint256",
          "name": "enrollmentDate",
          "type": "uint256"
        },
        {
          "internalType": "uint256",
          "name": "graduationDate",
          "type": "uint256"
        }
      ],
      "stateMutability": "view",
      "type": "function"
    },
    {
      "inputs": [
        {
          "internalType": "uint256",
          "name": "credentialId",
          "type": "uint256"
        }
      ],
      "name": "getCredentialEncryptedData",
      "outputs": [
        {
          "internalType": "bytes32",
          "name": "score",
          "type": "bytes32"
        },
        {
          "internalType": "bytes32",
          "name": "validityPeriod",
          "type": "bytes32"
        },
        {
          "internalType": "bool",
          "name": "isRevoked",
          "type": "bool"
        },
        {
          "internalType": "bool",
          "name": "isVerified",
          "type": "bool"
        },
        {
          "internalType": "string",
          "name": "credentialType",
          "type": "string"
        },
        {
          "internalType": "string",
          "name": "issuer",
          "type": "string"
        },
        {
          "internalType": "string",
          "name": "metadataHash",
          "type": "string"
        },
        {
          "internalType": "address",
          "name": "credentialOwner",
          "type": "address"
        },
        {
          "internalType": "uint256",
          "name": "issuedAt",
          "type": "uint256"
        },
        {
          "internalType": "uint256",
          "name": "expiresAt",
          "type": "uint256"
        }
      ],
      "stateMutability": "view",
      "type": "function"
    },
    {
      "inputs": [
        {
          "internalType": "uint256",
          "name": "credentialId",
          "type": "uint256"
        }
      ],
      "name": "getCredentialInfo",
      "outputs": [
        {
          "internalType": "uint8",
          "name": "score",
          "type": "uint8"
        },
        {
          "internalType": "uint8",
          "name": "validityPeriod",
          "type": "uint8"
        },
        {
          "internalType": "bool",
          "name": "isRevoked",
          "type": "bool"
        },
        {
          "internalType": "bool",
          "name": "isVerified",
          "type": "bool"
        },
        {
          "internalType": "string",
          "name": "credentialType",
          "type": "string"
        },
        {
          "internalType": "string",
          "name": "issuer",
          "type": "string"
        },
        {
          "internalType": "string",
          "name": "metadataHash",
          "type": "string"
        },
        {
          "internalType": "address",
          "name": "credentialOwner",
          "type": "address"
        },
        {
          "internalType": "uint256",
          "name": "issuedAt",
          "type": "uint256"
        },
        {
          "internalType": "uint256",
          "name": "expiresAt",
          "type": "uint256"
        }
      ],
      "stateMutability": "view",
      "type": "function"
    },
    {
      "inputs": [
        {
          "internalType": "address",
          "name": "institution",
          "type": "address"
        }
      ],
      "name": "getInstitutionReputation",
      "outputs": [
        {
          "internalType": "uint8",
          "name": "",
          "type": "uint8"
        }
      ],
      "stateMutability": "view",
      "type": "function"
    },
    {
      "inputs": [],
      "name": "getProfileCount",
      "outputs": [
        {
          "internalType": "uint256",
          "name": "",
          "type": "uint256"
        }
      ],
      "stateMutability": "view",
      "type": "function"
    },
    {
      "inputs": [
        {
          "internalType": "address",
          "name": "scholar",
          "type": "address"
        }
      ],
      "name": "getProfileIdsByScholar",
      "outputs": [
        {
          "internalType": "uint256[]",
          "name": "",
          "type": "uint256[]"
        }
      ],
      "stateMutability": "view",
      "type": "function"
    },
    {
      "inputs": [
        {
          "internalType": "uint256",
          "name": "profileId",
          "type": "uint256"
        }
      ],
      "name": "getScholarEncryptedData",
      "outputs": [
        {
          "internalType": "bytes32",
          "name": "academicScore",
          "type": "bytes32"
        },
        {
          "internalType": "bytes32",
          "name": "verificationLevel",
          "type": "bytes32"
        },
        {
          "internalType": "bytes32",
          "name": "reputationScore",
          "type": "bytes32"
        },
        {
          "internalType": "string",
          "name": "name",
          "type": "string"
        },
        {
          "internalType": "string",
          "name": "institution",
          "type": "string"
        },
        {
          "internalType": "string",
          "name": "specialization",
          "type": "string"
        },
        {
          "internalType": "address",
          "name": "scholar",
          "type": "address"
        },
        {
          "internalType": "bool",
          "name": "isVerified",
          "type": "bool"
        },
        {
          "internalType": "bool",
          "name": "isActive",
          "type": "bool"
        },
        {
          "internalType": "uint256",
          "name": "createdAt",
          "type": "uint256"
        },
        {
          "internalType": "uint256",
          "name": "lastUpdated",
          "type": "uint256"
        }
      ],
      "stateMutability": "view",
      "type": "function"
    },
    {
      "inputs": [
        {
          "internalType": "uint256",
          "name": "profileId",
          "type": "uint256"
        }
      ],
      "name": "getScholarProfileInfo",
      "outputs": [
        {
          "internalType": "string",
          "name": "name",
          "type": "string"
        },
        {
          "internalType": "string",
          "name": "institution",
          "type": "string"
        },
        {
          "internalType": "string",
          "name": "specialization",
          "type": "string"
        },
        {
          "internalType": "uint8",
          "name": "academicScore",
          "type": "uint8"
        },
        {
          "internalType": "uint8",
          "name": "verificationLevel",
          "type": "uint8"
        },
        {
          "internalType": "uint8",
          "name": "reputationScore",
          "type": "uint8"
        },
        {
          "internalType": "bool",
          "name": "isVerified",
          "type": "bool"
        },
        {
          "internalType": "bool",
          "name": "isActive",
          "type": "bool"
        },
        {
          "internalType": "address",
          "name": "scholar",
          "type": "address"
        },
        {
          "internalType": "uint256",
          "name": "createdAt",
          "type": "uint256"
        },
        {
          "internalType": "uint256",
          "name": "lastUpdated",
          "type": "uint256"
        }
      ],
      "stateMutability": "view",
      "type": "function"
    },
    {
      "inputs": [
        {
          "internalType": "address",
          "name": "scholar",
          "type": "address"
        }
      ],
      "name": "getScholarReputation",
      "outputs": [
        {
          "internalType": "uint8",
          "name": "",
          "type": "uint8"
        }
      ],
      "stateMutability": "view",
      "type": "function"
    },
    {
      "inputs": [
        {
          "internalType": "uint256",
          "name": "requestId",
          "type": "uint256"
        }
      ],
      "name": "getVerificationRequestInfo",
      "outputs": [
        {
          "internalType": "uint8",
          "name": "verificationScore",
          "type": "uint8"
        },
        {
          "internalType": "bool",
          "name": "isApproved",
          "type": "bool"
        },
        {
          "internalType": "bool",
          "name": "isProcessed",
          "type": "bool"
        },
        {
          "internalType": "string",
          "name": "requestType",
          "type": "string"
        },
        {
          "internalType": "string",
          "name": "evidenceHash",
          "type": "string"
        },
        {
          "internalType": "address",
          "name": "requester",
          "type": "address"
        },
        {
          "internalType": "address",
          "name": "verifierAddress",
          "type": "address"
        },
        {
          "internalType": "uint256",
          "name": "submittedAt",
          "type": "uint256"
        },
        {
          "internalType": "uint256",
          "name": "processedAt",
          "type": "uint256"
        }
      ],
      "stateMutability": "view",
      "type": "function"
    },
    {
      "inputs": [],
      "name": "institutionManager",
      "outputs": [
        {
          "internalType": "address",
          "name": "",
          "type": "address"
        }
      ],
      "stateMutability": "view",
      "type": "function"
    },
    {
      "inputs": [
        {
          "internalType": "address",
          "name": "",
          "type": "address"
        }
      ],
      "name": "institutionReputation",
      "outputs": [
        {
          "internalType": "euint32",
          "name": "",
          "type": "bytes32"
        }
      ],
      "stateMutability": "view",
      "type": "function"
    },
    {
      "inputs": [
        {
          "internalType": "address",
          "name": "_owner",
          "type": "address"
        },
        {
          "internalType": "string",
          "name": "_credentialType",
          "type": "string"
        },
        {
          "internalType": "string",
          "name": "_issuer",
          "type": "string"
        },
        {
          "internalType": "string",
          "name": "_metadataHash",
          "type": "string"
        },
        {
          "internalType": "externalEuint32",
          "name": "score",
          "type": "bytes32"
        },
        {
          "internalType": "externalEuint32",
          "name": "validityPeriod",
          "type": "bytes32"
        },
        {
          "internalType": "bytes",
          "name": "inputProof",
          "type": "bytes"
        }
      ],
      "name": "issueCredential",
      "outputs": [
        {
          "internalType": "uint256",
          "name": "",
          "type": "uint256"
        }
      ],
      "stateMutability": "nonpayable",
      "type": "function"
    },
    {
      "inputs": [],
      "name": "owner",
      "outputs": [
        {
          "internalType": "address",
          "name": "",
          "type": "address"
        }
      ],
      "stateMutability": "view",
      "type": "function"
    },
    {
      "inputs": [
        {
          "internalType": "uint256",
          "name": "requestId",
          "type": "uint256"
        },
        {
          "internalType": "bool",
          "name": "isApproved",
          "type": "bool"
        }
      ],
      "name": "processVerificationRequest",
      "outputs": [],
      "stateMutability": "nonpayable",
      "type": "function"
    },
    {
      "inputs": [],
      "name": "profileCounter",
      "outputs": [
        {
          "internalType": "uint256",
          "name": "",
          "type": "uint256"
        }
      ],
      "stateMutability": "view",
      "type": "function"
    },
    {
      "inputs": [],
      "name": "protocolId",
      "outputs": [
        {
          "internalType": "uint256",
          "name": "",
          "type": "uint256"
        }
      ],
      "stateMutability": "pure",
      "type": "function"
    },
    {
      "inputs": [],
      "name": "recordCounter",
      "outputs": [
        {
          "internalType": "uint256",
          "name": "",
          "type": "uint256"
        }
      ],
      "stateMutability": "view",
      "type": "function"
    },
    {
      "inputs": [],
      "name": "requestCounter",
      "outputs": [
        {
          "internalType": "uint256",
          "name": "",
          "type": "uint256"
        }
      ],
      "stateMutability": "view",
      "type": "function"
    },
    {
      "inputs": [
        {
          "internalType": "uint256",
          "name": "credentialId",
          "type": "uint256"
        }
      ],
      "name": "revokeCredential",
      "outputs": [],
      "stateMutability": "nonpayable",
      "type": "function"
    },
    {
      "inputs": [
        {
          "internalType": "uint256",
          "name": "",
          "type": "uint256"
        }
      ],
      "name": "scholarProfiles",
      "outputs": [
        {
          "internalType": "euint32",
          "name": "profileId",
          "type": "bytes32"
        },
        {
          "internalType": "euint32",
          "name": "academicScore",
          "type": "bytes32"
        },
        {
          "internalType": "euint32",
          "name": "verificationLevel",
          "type": "bytes32"
        },
        {
          "internalType": "euint32",
          "name": "reputationScore",
          "type": "bytes32"
        },
        {
          "internalType": "bool",
          "name": "isVerified",
          "type": "bool"
        },
        {
          "internalType": "bool",
          "name": "isActive",
          "type": "bool"
        },
        {
          "internalType": "string",
          "name": "name",
          "type": "string"
        },
        {
          "internalType": "string",
          "name": "institution",
          "type": "string"
        },
        {
          "internalType": "string",
          "name": "specialization",
          "type": "string"
        },
        {
          "internalType": "address",
          "name": "scholar",
          "type": "address"
        },
        {
          "internalType": "uint256",
          "name": "createdAt",
          "type": "uint256"
        },
        {
          "internalType": "uint256",
          "name": "lastUpdated",
          "type": "uint256"
        }
      ],
      "stateMutability": "view",
      "type": "function"
    },
    {
      "inputs": [
        {
          "internalType": "address",
          "name": "",
          "type": "address"
        }
      ],
      "name": "scholarReputation",
      "outputs": [
        {
          "internalType": "euint32",
          "name": "",
          "type": "bytes32"
        }
      ],
      "stateMutability": "view",
      "type": "function"
    },
    {
      "inputs": [
        {
          "internalType": "string",
          "name": "_requestType",
          "type": "string"
        },
        {
          "internalType": "string",
          "name": "_evidenceHash",
          "type": "string"
        },
        {
          "internalType": "externalEuint32",
          "name": "verificationScore",
          "type": "bytes32"
        },
        {
          "internalType": "bytes",
          "name": "inputProof",
          "type": "bytes"
        }
      ],
      "name": "submitVerificationRequest",
      "outputs": [
        {
          "internalType": "uint256",
          "name": "",
          "type": "uint256"
        }
      ],
      "stateMutability": "nonpayable",
      "type": "function"
    },
    {
      "inputs": [
        {
          "internalType": "address",
          "name": "user",
          "type": "address"
        },
        {
          "internalType": "euint32",
          "name": "reputation",
          "type": "bytes32"
        }
      ],
      "name": "updateReputation",
      "outputs": [],
      "stateMutability": "nonpayable",
      "type": "function"
    },
    {
      "inputs": [
        {
          "internalType": "uint256",
          "name": "",
          "type": "uint256"
        }
      ],
      "name": "verificationRequests",
      "outputs": [
        {
          "internalType": "euint32",
          "name": "requestId",
          "type": "bytes32"
        },
        {
          "internalType": "euint32",
          "name": "verificationScore",
          "type": "bytes32"
        },
        {
          "internalType": "bool",
          "name": "isApproved",
          "type": "bool"
        },
        {
          "internalType": "bool",
          "name": "isProcessed",
          "type": "bool"
        },
        {
          "internalType": "string",
          "name": "requestType",
          "type": "string"
        },
        {
          "internalType": "string",
          "name": "evidenceHash",
          "type": "string"
        },
        {
          "internalType": "address",
          "name": "requester",
          "type": "address"
        },
        {
          "internalType": "address",
          "name": "verifier",
          "type": "address"
        },
        {
          "internalType": "uint256",
          "name": "submittedAt",
          "type": "uint256"
        },
        {
          "internalType": "uint256",
          "name": "processedAt",
          "type": "uint256"
        }
      ],
      "stateMutability": "view",
      "type": "function"
    },
    {
      "inputs": [],
      "name": "verifier",
      "outputs": [
        {
          "internalType": "address",
          "name": "",
          "type": "address"
        }
      ],
      "stateMutability": "view",
      "type": "function"
    }
  ],
  "bytecode": "0x60806040523480156200001157600080fd5b506040516200393f3803806200393f83398101604081905262000034916200020b565b620001b1620000d5604080516080810182526000808252602082018190529181018290526060810191909152506040805160808101825273687820221192c5b662b25367f70076a37bc79b6c815273848b0066793bcc60346da1f49049357399b8d595602082015273a02cda4ca3a71d7c46997716f4283aa851c2881291810191909152731364cbbf2cdf5032c47d8226a6f6fbd2afcdacac606082015290565b80517f9e7b61f58c47dc699ac88507c4f5bb9f121c03808c5676a8078fe583e464970080546001600160a01b03199081166001600160a01b039384161790915560208301517f9e7b61f58c47dc699ac88507c4f5bb9f121c03808c5676a8078fe583e46497018054831691841691909117905560408301517f9e7b61f58c47dc699ac88507c4f5bb9f121c03808c5676a8078fe583e46497028054831691841691909117905560608301517f9e7b61f58c47dc699ac88507c4f5bb9f121c03808c5676a8078fe583e46497038054909216921691909117905550565b600a80546001600160a01b03199081163317909155600b80546001600160a01b03948516908316179055600c805492909316911617905562000243565b80516001600160a01b03811681146200020657600080fd5b919050565b600080604083850312156200021f57600080fd5b6200022a83620001ee565b91506200023a60208401620001ee565b90509250929050565b6136ec80620002536000396000f3fe608060405234801561001057600080fd5b50600436106101f05760003560e01c80638da5cb5b1161010f578063d7e0bb99116100a2578063e0574e3f11610071578063e0574e3f146104fb578063ef66933614610250578063f7aa022c14610525578063fbb9eccd1461053857600080fd5b8063d7e0bb991461048d578063d821ae05146104b7578063da1f12ab146104ca578063ddc7e709146104d257600080fd5b8063aa9c9887116100de578063aa9c988714610431578063aae0642514610444578063ab6cc2851461044d578063c83af4151461046d57600080fd5b80638da5cb5b146103f9578063902b36cd1461040c57806390c74d5e1461041f578063973a814e1461042857600080fd5b80633b0e2c5d116101875780635feff26c116101565780635feff26c146103885780637599be5d146103b257806381d61ee6146103bb57806389b3dd06146103e657600080fd5b80633b0e2c5d146103035780634089d49f146103235780634f295b781461034c57806351dad3fe1461037557600080fd5b80631b87278d116101c35780631b87278d1461029e5780632b7ac3f3146102b35780633697611a146102de578063397ee67d146102f057600080fd5b8063149764da146101f557806319fea922146102275780631a3cad4a146102505780631a7cf40914610276575b600080fd5b610208610203366004612b44565b610562565b60405161021e9a99989796959493929190612ba3565b60405180910390f35b61023a610235366004612b44565b6107a3565b60405161021e9a99989796959493929190612c27565b61026461025e366004612c7a565b50600090565b60405160ff909116815260200161021e565b610289610284366004612b44565b61081a565b60405161021e99989796959493929190612c95565b6102b16102ac366004612b44565b6109ba565b005b600b546102c6906001600160a01b031681565b6040516001600160a01b03909116815260200161021e565b6006545b60405190815260200161021e565b6102e26102fe366004612df5565b610ab9565b6102e2610311366004612c7a565b60046020526000908152604090205481565b610336610331366004612b44565b610e79565b60405161021e9a99989796959493929190612ecc565b61035f61035a366004612b44565b610ff0565b60405161021e9a99989796959493929190612f45565b6102e2610383366004612f75565b61106e565b61039b610396366004612b44565b6113d1565b60405161021e9b9a99989796959493929190613032565b6102e260095481565b6103ce6103c9366004612b44565b6115d1565b60405161021e9c9b9a999897969594939291906130be565b6102b16103f4366004613154565b6117d9565b600a546102c6906001600160a01b031681565b600c546102c6906001600160a01b031681565b6102e260065481565b6102e260085481565b6102e261043f36600461317e565b611949565b6102e260075481565b61046061045b366004612c7a565b611bb1565b60405161021e9190613217565b6102e261047b366004612c7a565b60056020526000908152604090205481565b6104a061049b366004612b44565b611cfd565b60405161021e9b9a9998979695949392919061325b565b6102e26104c53660046132e4565b611f43565b6127116102e2565b6104e56104e0366004612b44565b612207565b60405161021e9a99989796959493929190613322565b61050e610509366004612b44565b612279565b60405161021e9b9a99989796959493929190613358565b6102b161053336600461338e565b61247a565b61054b610546366004612b44565b612636565b60405161021e9b9a999897969594939291906133c3565b6000806000806060806060600080600080600360008d81526020019081526020016000209050610593816001015490565b600282015460038301548360040160009054906101000a900460ff168460050185600601866007018760080160009054906101000a90046001600160a01b0316886009015489600a01548580546105e99061345e565b80601f01602080910402602001604051908101604052809291908181526020018280546106159061345e565b80156106625780601f1061063757610100808354040283529160200191610662565b820191906000526020600020905b81548152906001019060200180831161064557829003601f168201915b505050505095508480546106759061345e565b80601f01602080910402602001604051908101604052809291908181526020018280546106a19061345e565b80156106ee5780601f106106c3576101008083540402835291602001916106ee565b820191906000526020600020905b8154815290600101906020018083116106d157829003601f168201915b505050505094508380546107019061345e565b80601f016020809104026020016040519081016040528092919081815260200182805461072d9061345e565b801561077a5780601f1061074f5761010080835404028352916020019161077a565b820191906000526020600020905b81548152906001019060200180831161075d57829003601f168201915b505050505093509a509a509a509a509a509a509a509a509a509a50509193959799509193959799565b6000806000806060806060600080600080600360008d8152602001908152602001600020905060008060008360040160009054906101000a900460ff168460050185600601866007018760080160009054906101000a90046001600160a01b0316886009015489600a01548580546105e99061345e565b600081815260026020819052604082209081015460058201546006830154600784015460088501546003860180548897889760609788978a97889788978897889660ff808216976101009092041695929460048a01946001600160a01b039283169490921692909190869061088e9061345e565b80601f01602080910402602001604051908101604052809291908181526020018280546108ba9061345e565b80156109075780601f106108dc57610100808354040283529160200191610907565b820191906000526020600020905b8154815290600101906020018083116108ea57829003601f168201915b5050505050955084805461091a9061345e565b80601f01602080910402602001604051908101604052809291908181526020018280546109469061345e565b80156109935780601f1061096857610100808354040283529160200191610993565b820191906000526020600020905b81548152906001019060200180831161097657829003601f168201915b50505050509450995099509950995099509950995099509950509193959799909294969850565b600c546001600160a01b03163314610a315760405162461bcd60e51b815260206004820152602f60248201527f4f6e6c7920696e737469747574696f6e206d616e616765722063616e2072657660448201526e6f6b652063726564656e7469616c7360881b60648201526084015b60405180910390fd5b6000818152600160205260409020600701546001600160a01b0316610a985760405162461bcd60e51b815260206004820152601960248201527f43726564656e7469616c20646f6573206e6f74206578697374000000000000006044820152606401610a28565b6000908152600160208190526040909120600301805460ff19169091179055565b600c546000906001600160a01b03163314610b2d5760405162461bcd60e51b815260206004820152602e60248201527f4f6e6c7920696e737469747574696f6e206d616e616765722063616e2069737360448201526d75652063726564656e7469616c7360901b6064820152608401610a28565b6001600160a01b038916610b7b5760405162461bcd60e51b8152602060048201526015602482015274496e76616c6964206f776e6572206164647265737360581b6044820152606401610a28565b6000885111610bcc5760405162461bcd60e51b815260206004820152601f60248201527f43726564656e7469616c20747970652063616e6e6f7420626520656d707479006044820152606401610a28565b6007805460009182610bdd836134ae565b9190505590506000610c258786868080601f01602080910402602001604051908101604052809392919081815260200183838082843760009201919091525061287e92505050565b90506000610c698787878080601f01602080910402602001604051908101604052809392919081815260200183838082843760009201919091525061287e92505050565b9050604051806101600160405280610c8085612895565b81526020018381526020018281526020016000151581526020016001151581526020018c81526020018b81526020018a81526020018d6001600160a01b03168152602001428152602001426301e13380610cda91906134c7565b90526000848152600160208181526040928390208451815590840151918101919091559082015160028201556060820151600382018054608085015115156101000261ff00199315159390931661ffff199091161791909117905560a08201516004820190610d49908261352b565b5060c08201516005820190610d5e908261352b565b5060e08201516006820190610d73908261352b565b506101008201516007820180546001600160a01b0319166001600160a01b0390921691909117905561012082015160088201556101409091015160099091015560008381526001602081905260409091200154610dcf906128a8565b5060008381526001602081905260409091200154610ded908d6128b8565b50600083815260016020526040902060020154610e09906128a8565b50600083815260016020526040902060020154610e26908d6128b8565b508b6001600160a01b0316837ff03729c4e45d56313830b69839594a662bd953079e350899f22c95272f29567f8d604051610e6191906135eb565b60405180910390a350909a9950505050505050505050565b6002602081905260009182526040909120805460018201549282015460038301805492949360ff808416946101009094041692909190610eb89061345e565b80601f0160208091040260200160405190810160405280929190818152602001828054610ee49061345e565b8015610f315780601f10610f0657610100808354040283529160200191610f31565b820191906000526020600020905b815481529060010190602001808311610f1457829003601f168201915b505050505090806004018054610f469061345e565b80601f0160208091040260200160405190810160405280929190818152602001828054610f729061345e565b8015610fbf5780601f10610f9457610100808354040283529160200191610fbf565b820191906000526020600020905b815481529060010190602001808311610fa257829003601f168201915b5050505060058301546006840154600785015460089095015493946001600160a01b0392831694929091169250908a565b6000806000806060806060600080600080600160008d81526020019081526020016000209050611021816001015490565b6002820154600383015460078401546008850154600986015460048701805460ff8087169661010090041694919360058a019360068b01936001600160a01b03169286906105e99061345e565b6000808751116110b75760405162461bcd60e51b81526020600482015260146024820152734e616d652063616e6e6f7420626520656d70747960601b6044820152606401610a28565b60008651116111085760405162461bcd60e51b815260206004820152601b60248201527f496e737469747574696f6e2063616e6e6f7420626520656d70747900000000006044820152606401610a28565b6006805460009182611119836134ae565b91905055905060006111618686868080601f01602080910402602001604051908101604052809392919081815260200183838082843760009201919091525061287e92505050565b905060405180610180016040528061117884612895565b815260200182815260200161118d6000612895565b815260200161119c6000612895565b81526020016000151581526020016001151581526020018a8152602001898152602001888152602001336001600160a01b03168152602001428152602001428152506000808481526020019081526020016000206000820151816000015560208201518160010155604082015181600201556060820151816003015560808201518160040160006101000a81548160ff02191690831515021790555060a08201518160040160016101000a81548160ff02191690831515021790555060c082015181600501908161126d919061352b565b5060e08201516006820190611282908261352b565b506101008201516007820190611298908261352b565b506101208201516008820180546001600160a01b0319166001600160a01b03909216919091179055610140820151600982015561016090910151600a909101556000828152602081905260409020600101546112f3906128a8565b5060008281526020819052604090206001015461131090336128b8565b5060008281526020819052604090206002015461132c906128a8565b5060008281526020819052604090206002015461134990336128b8565b50600082815260208190526040902060030154611365906128a8565b5060008281526020819052604090206003015461138290336128b8565b50336001600160a01b0316827f64849d9017ccd37161417597e9733299a671f98dcb0907422672a2e159eb12178b6040516113bd91906135eb565b60405180910390a350979650505050505050565b6003602081905260009182526040909120805460018201546002830154938301546004840154600585018054949693959394929360ff909216926114149061345e565b80601f01602080910402602001604051908101604052809291908181526020018280546114409061345e565b801561148d5780601f106114625761010080835404028352916020019161148d565b820191906000526020600020905b81548152906001019060200180831161147057829003601f168201915b5050505050908060060180546114a29061345e565b80601f01602080910402602001604051908101604052809291908181526020018280546114ce9061345e565b801561151b5780601f106114f05761010080835404028352916020019161151b565b820191906000526020600020905b8154815290600101906020018083116114fe57829003601f168201915b5050505050908060070180546115309061345e565b80601f016020809104026020016040519081016040528092919081815260200182805461155c9061345e565b80156115a95780601f1061157e576101008083540402835291602001916115a9565b820191906000526020600020905b81548152906001019060200180831161158c57829003601f168201915b5050505060088301546009840154600a9094015492936001600160a01b03909116929091508b565b600060208190529081526040902080546001820154600283015460038401546004850154600586018054959694959394929360ff808416946101009094041692919061161c9061345e565b80601f01602080910402602001604051908101604052809291908181526020018280546116489061345e565b80156116955780601f1061166a57610100808354040283529160200191611695565b820191906000526020600020905b81548152906001019060200180831161167857829003601f168201915b5050505050908060060180546116aa9061345e565b80601f01602080910402602001604051908101604052809291908181526020018280546116d69061345e565b80156117235780601f106116f857610100808354040283529160200191611723565b820191906000526020600020905b81548152906001019060200180831161170657829003601f168201915b5050505050908060070180546117389061345e565b80601f01602080910402602001604051908101604052809291908181526020018280546117649061345e565b80156117b15780601f10611786576101008083540402835291602001916117b1565b820191906000526020600020905b81548152906001019060200180831161179457829003601f168201915b5050505060088301546009840154600a9094015492936001600160a01b03909116929091508c565b600b546001600160a01b0316331461183f5760405162461bcd60e51b815260206004820152602360248201527f4f6e6c792076657269666965722063616e20757064617465207265707574617460448201526234b7b760e91b6064820152608401610a28565b6001600160a01b03821661188c5760405162461bcd60e51b8152602060048201526014602482015273496e76616c69642075736572206164647265737360601b6044820152606401610a28565b816001600160a01b031660008060016006546118a891906135fe565b81526020810191909152604001600020600801546001600160a01b0316036118ea576001600160a01b0382166000908152600460205260409020819055611906565b6001600160a01b03821660009081526005602052604090208190555b604051600081526001600160a01b038316907fbc29a8e6655836a9c09ee2d874d0ec6df064e0b7d9d9dd0f097ad3f2874ed9869060200160405180910390a25050565b60008086511161199b5760405162461bcd60e51b815260206004820152601c60248201527f5265717565737420747970652063616e6e6f7420626520656d707479000000006044820152606401610a28565b60008551116119ec5760405162461bcd60e51b815260206004820152601d60248201527f45766964656e636520686173682063616e6e6f7420626520656d7074790000006044820152606401610a28565b60088054600091826119fd836134ae565b9190505590506000611a458686868080601f01602080910402602001604051908101604052809392919081815260200183838082843760009201919091525061287e92505050565b9050604051806101400160405280611a5c84612895565b8152602080820184905260006040808401829052606080850183905260808086018f905260a086018e90523360c087015260e0860184905242610100808801919091526101209096018490528884526002808652938390208751815594870151600186015591860151928401805491870151151590950261ff00199315159390931661ffff199091161791909117909255908201516003820190611b00908261352b565b5060a08201516004820190611b15908261352b565b5060c08201516005820180546001600160a01b039283166001600160a01b03199182161790915560e0840151600684018054919093169116179055610100820151600782015561012090910151600890910155604051339083907fa34e1dd2e50439a3590264f0b2c8d97c220efc7ef0fbe5a3552280b9b128c84490611b9c908c906135eb565b60405180910390a35090505b95945050505050565b6060600060065467ffffffffffffffff811115611bd057611bd0612d09565b604051908082528060200260200182016040528015611bf9578160200160208202803683370190505b5090506000805b600654811015611c62576000818152602081905260409020600801546001600160a01b03808716911603611c5a5780838381518110611c4157611c41613611565b602090810291909101015281611c56816134ae565b9250505b600101611c00565b5060008167ffffffffffffffff811115611c7e57611c7e612d09565b604051908082528060200260200182016040528015611ca7578160200160208202803683370190505b50905060005b82811015611cf457838181518110611cc757611cc7613611565b6020026020010151828281518110611ce157611ce1613611565b6020908102919091010152600101611cad565b50949350505050565b600080600060608060606000806000806000806000808e81526020019081526020016000209050611d2f816001015490565b60028201546003830154600884015460048501546009860154600a870154600588018054909460068a019460078b01946001600160a01b039092169360ff808316946101009093041692918890611d859061345e565b80601f0160208091040260200160405190810160405280929190818152602001828054611db19061345e565b8015611dfe5780601f10611dd357610100808354040283529160200191611dfe565b820191906000526020600020905b815481529060010190602001808311611de157829003601f168201915b50505050509750868054611e119061345e565b80601f0160208091040260200160405190810160405280929190818152602001828054611e3d9061345e565b8015611e8a5780601f10611e5f57610100808354040283529160200191611e8a565b820191906000526020600020905b815481529060010190602001808311611e6d57829003601f168201915b50505050509650858054611e9d9061345e565b80601f0160208091040260200160405190810160405280929190818152602001828054611ec99061345e565b8015611f165780601f10611eeb57610100808354040283529160200191611f16565b820191906000526020600020905b815481529060010190602001808311611ef957829003601f168201915b505050505095509b509b509b509b509b509b509b509b509b509b509b505091939597999b90929496989a50565b600c546000906001600160a01b03163314611fb15760405162461bcd60e51b815260206004820152602860248201527f4f6e6c7920696e737469747574696f6e206d616e616765722063616e20616464604482015267207265636f72647360c01b6064820152608401610a28565b6001600160a01b0386166120075760405162461bcd60e51b815260206004820152601760248201527f496e76616c69642073747564656e7420616464726573730000000000000000006044820152606401610a28565b6009805460009182612018836134ae565b91905055905060006120608686868080601f01602080910402602001604051908101604052809392919081815260200183838082843760009201919091525061287e92505050565b905060405180610160016040528061207784612895565b815260200182815260200161208c6000612895565b815260200161209b6000612895565b8152602001600015158152602001888152602001604051806020016040528060008152508152602001604051806020016040528060008152508152602001896001600160a01b031681526020014281526020016000815250600360008481526020019081526020016000206000820151816000015560208201518160010155604082015181600201556060820151816003015560808201518160040160006101000a81548160ff02191690831515021790555060a0820151816005019081612163919061352b565b5060c08201516006820190612178908261352b565b5060e0820151600782019061218d908261352b565b506101008201516008820180546001600160a01b0319166001600160a01b03928316179055610120830151600983015561014090920151600a90910155604080516020808252600090820152918a169184917f183238f069007a4db17fb5dbf21390c9a4090ee459eac2bcf7c229ab5dc3e6019101611b9c565b60008181526001602052604081206003810154600782015460088301546009840154600485018054879687968796606096879687968a968796879690958795869560ff80851696610100909504169460058a019360068b01936001600160a01b0390911692909186906105e99061345e565b6001602081905260009182526040909120805491810154600282015460038301546004840180549394929360ff80841694610100909404169291906122bd9061345e565b80601f01602080910402602001604051908101604052809291908181526020018280546122e99061345e565b80156123365780601f1061230b57610100808354040283529160200191612336565b820191906000526020600020905b81548152906001019060200180831161231957829003601f168201915b50505050509080600501805461234b9061345e565b80601f01602080910402602001604051908101604052809291908181526020018280546123779061345e565b80156123c45780601f10612399576101008083540402835291602001916123c4565b820191906000526020600020905b8154815290600101906020018083116123a757829003601f168201915b5050505050908060060180546123d99061345e565b80601f01602080910402602001604051908101604052809291908181526020018280546124059061345e565b80156124525780601f1061242757610100808354040283529160200191612452565b820191906000526020600020905b81548152906001019060200180831161243557829003601f168201915b505050506007830154600884015460099094015492936001600160a01b03909116929091508b565b600b546001600160a01b031633146124df5760405162461bcd60e51b815260206004820152602260248201527f4f6e6c792076657269666965722063616e2070726f6365737320726571756573604482015261747360f01b6064820152608401610a28565b6000828152600260205260409020600501546001600160a01b031661253f5760405162461bcd60e51b815260206004820152601660248201527514995c5d595cdd08191bd95cc81b9bdd08195e1a5cdd60521b6044820152606401610a28565b60008281526002602081905260409091200154610100900460ff16156125a75760405162461bcd60e51b815260206004820152601960248201527f5265717565737420616c72656164792070726f636573736564000000000000006044820152606401610a28565b600082815260026020819052604091829020908101805461ff00198515151661ffff19909116176101001790556006810180546001600160a01b0319163390811790915542600890920191909155905183907fc9309abbb89b12a5d283fc9433c646c28705d50dde4b7b60b6c4fcd0d7bf08099061262a90851515815260200190565b60405180910390a35050565b606080606060008060008060008060008060008060008e8152602001908152602001600020905080600501816006018260070160008060008660040160009054906101000a900460ff168760040160019054906101000a900460ff168860080160009054906101000a90046001600160a01b031689600901548a600a01548a80546126c09061345e565b80601f01602080910402602001604051908101604052809291908181526020018280546126ec9061345e565b80156127395780601f1061270e57610100808354040283529160200191612739565b820191906000526020600020905b81548152906001019060200180831161271c57829003601f168201915b50505050509a5089805461274c9061345e565b80601f01602080910402602001604051908101604052809291908181526020018280546127789061345e565b80156127c55780601f1061279a576101008083540402835291602001916127c5565b820191906000526020600020905b8154815290600101906020018083116127a857829003601f168201915b505050505099508880546127d89061345e565b80601f01602080910402602001604051908101604052809291908181526020018280546128049061345e565b80156128515780601f1061282657610100808354040283529160200191612851565b820191906000526020600020905b81548152906001019060200180831161283457829003601f168201915b505050505098509b509b509b509b509b509b509b509b509b509b509b505091939597999b90929496989a50565b600061288c838360046128cb565b90505b92915050565b600061288f8263ffffffff1660046129f4565b60006128b48230612ab5565b5090565b60006128c48383612ab5565b5090919050565b7f9e7b61f58c47dc699ac88507c4f5bb9f121c03808c5676a8078fe583e46497015460405163196d0b9b60e01b81526000917f9e7b61f58c47dc699ac88507c4f5bb9f121c03808c5676a8078fe583e4649700916001600160a01b039091169063196d0b9b90612945908890339089908990600401613649565b6020604051808303816000875af1158015612964573d6000803e3d6000fd5b505050506040513d601f19601f820116820180604052508101906129889190613682565b8154604051630f8e573b60e21b8152600481018390523360248201529193506001600160a01b031690633e395cec90604401600060405180830381600087803b1580156129d457600080fd5b505af11580156129e8573d6000803e3d6000fd5b50505050509392505050565b7f9e7b61f58c47dc699ac88507c4f5bb9f121c03808c5676a8078fe583e464970154604051639cd07acb60e01b81526000917f9e7b61f58c47dc699ac88507c4f5bb9f121c03808c5676a8078fe583e4649700916001600160a01b0390911690639cd07acb90612a6a908790879060040161369b565b6020604051808303816000875af1158015612a89573d6000803e3d6000fd5b505050506040513d601f19601f82011682018060405250810190612aad9190613682565b949350505050565b60007f9e7b61f58c47dc699ac88507c4f5bb9f121c03808c5676a8078fe583e46497008054604051635ca4b5b160e11b8152600481018690526001600160a01b03858116602483015292935091169063b9496b6290604401600060405180830381600087803b158015612b2757600080fd5b505af1158015612b3b573d6000803e3d6000fd5b50505050505050565b600060208284031215612b5657600080fd5b5035919050565b6000815180845260005b81811015612b8357602081850181015186830182015201612b67565b506000602082860101526020601f19601f83011685010191505092915050565b60006101408c83528b60208401528a60408401528915156060840152806080840152612bd18184018a612b5d565b905082810360a0840152612be58189612b5d565b905082810360c0840152612bf98188612b5d565b6001600160a01b039690961660e0840152505061010081019290925261012090910152979650505050505050565b600061014060ff8d16835260ff8c16602084015260ff8b1660408401528915156060840152806080840152612bd18184018a612b5d565b80356001600160a01b0381168114612c7557600080fd5b919050565b600060208284031215612c8c57600080fd5b61288c82612c5e565b600061012060ff8c1683528a151560208401528915156040840152806060840152612cc28184018a612b5d565b90508281036080840152612cd68189612b5d565b6001600160a01b0397881660a08501529590961660c08301525060e0810192909252610100909101529695505050505050565b634e487b7160e01b600052604160045260246000fd5b600082601f830112612d3057600080fd5b813567ffffffffffffffff80821115612d4b57612d4b612d09565b604051601f8301601f19908116603f01168101908282118183101715612d7357612d73612d09565b81604052838152866020858801011115612d8c57600080fd5b836020870160208301376000602085830101528094505050505092915050565b60008083601f840112612dbe57600080fd5b50813567ffffffffffffffff811115612dd657600080fd5b602083019150836020828501011115612dee57600080fd5b9250929050565b60008060008060008060008060e0898b031215612e1157600080fd5b612e1a89612c5e565b9750602089013567ffffffffffffffff80821115612e3757600080fd5b612e438c838d01612d1f565b985060408b0135915080821115612e5957600080fd5b612e658c838d01612d1f565b975060608b0135915080821115612e7b57600080fd5b612e878c838d01612d1f565b965060808b0135955060a08b0135945060c08b0135915080821115612eab57600080fd5b50612eb88b828c01612dac565b999c989b5096995094979396929594505050565b60006101408c83528b60208401528a151560408401528915156060840152806080840152612efc8184018a612b5d565b905082810360a0840152612f108189612b5d565b6001600160a01b0397881660c08501529590961660e08301525061010081019290925261012090910152979650505050505050565b60006101408c83528b60208401528a151560408401528915156060840152806080840152612bd18184018a612b5d565b60008060008060008060a08789031215612f8e57600080fd5b863567ffffffffffffffff80821115612fa657600080fd5b612fb28a838b01612d1f565b97506020890135915080821115612fc857600080fd5b612fd48a838b01612d1f565b96506040890135915080821115612fea57600080fd5b612ff68a838b01612d1f565b955060608901359450608089013591508082111561301357600080fd5b5061302089828a01612dac565b979a9699509497509295939492505050565b60006101608d83528c60208401528b60408401528a606084015289151560808401528060a08401526130668184018a612b5d565b905082810360c084015261307a8189612b5d565b905082810360e084015261308e8188612b5d565b6001600160a01b039690961661010084015250506101208101929092526101409091015298975050505050505050565b60006101808e83528d60208401528c60408401528b60608401528a1515608084015289151560a08401528060c08401526130fa8184018a612b5d565b905082810360e084015261310e8189612b5d565b90508281036101008401526131238188612b5d565b6001600160a01b03969096166101208401525050610140810192909252610160909101529998505050505050505050565b6000806040838503121561316757600080fd5b61317083612c5e565b946020939093013593505050565b60008060008060006080868803121561319657600080fd5b853567ffffffffffffffff808211156131ae57600080fd5b6131ba89838a01612d1f565b965060208801359150808211156131d057600080fd5b6131dc89838a01612d1f565b95506040880135945060608801359150808211156131f957600080fd5b5061320688828901612dac565b969995985093965092949392505050565b6020808252825182820181905260009190848201906040850190845b8181101561324f57835183529284019291840191600101613233565b50909695505050505050565b60006101608d83528c60208401528b60408401528060608401526132818184018c612b5d565b90508281036080840152613295818b612b5d565b905082810360a08401526132a9818a612b5d565b6001600160a01b039890981660c0840152505093151560e0850152911515610100840152610120830152610140909101529695505050505050565b6000806000806000608086880312156132fc57600080fd5b61330586612c5e565b9450602086013567ffffffffffffffff808211156131d057600080fd5b600061014060ff8d16835260ff8c1660208401528a151560408401528915156060840152806080840152612bd18184018a612b5d565b60006101608d83528c60208401528b60408401528a1515606084015289151560808401528060a08401526130668184018a612b5d565b600080604083850312156133a157600080fd5b82359150602083013580151581146133b857600080fd5b809150509250929050565b60006101608083526133d78184018f612b5d565b905082810360208401526133eb818e612b5d565b905082810360408401526133ff818d612b5d565b91505060ff8a16606083015260ff8916608083015260ff881660a083015286151560c083015285151560e08301526134436101008301866001600160a01b03169052565b61012082019390935261014001529998505050505050505050565b600181811c9082168061347257607f821691505b60208210810361349257634e487b7160e01b600052602260045260246000fd5b50919050565b634e487b7160e01b600052601160045260246000fd5b6000600182016134c0576134c0613498565b5060010190565b8082018082111561288f5761288f613498565b601f821115613526576000816000526020600020601f850160051c810160208610156135035750805b601f850160051c820191505b818110156135225782815560010161350f565b5050505b505050565b815167ffffffffffffffff81111561354557613545612d09565b61355981613553845461345e565b846134da565b602080601f83116001811461358e57600084156135765750858301515b600019600386901b1c1916600185901b178555613522565b600085815260208120601f198616915b828110156135bd5788860151825594840194600190910190840161359e565b50858210156135db5787850151600019600388901b60f8161c191681555b5050505050600190811b01905550565b60208152600061288c6020830184612b5d565b8181038181111561288f5761288f613498565b634e487b7160e01b600052603260045260246000fd5b6054811061364557634e487b7160e01b600052602160045260246000fd5b9052565b8481526001600160a01b038416602082015260806040820181905260009061367390830185612b5d565b9050611ba86060830184613627565b60006020828403121561369457600080fd5b5051919050565b828152604081016136af6020830184613627565b939250505056fea2646970667358221220e5120c7c8228e45eaf9a066ee21094c6adb758a358a63ef9e91af9f700c8655964736f6c63430008180033",
  "linkReferences": {},
  "deployedLinkReferences": {}
}