{
  "_format": "hh-sol-artifact-1",
  "contractName": "SecureScholarSeal",
  "sourceName": "contracts/SecureScholarSeal.sol",
  "abi": [
    {
      "inputs": [
        {
          "internalType": "address",
          "name": "_verifier",
          "type": "address"
        },
        {
          "internalType": "address",
          "name": "_institutionManager",
          "type": "address"
        }
      ],
      "stateMutability": "nonpayable",
      "type": "constructor"
    },
    {
      "anonymous": false,
      "inputs": [
        {
          "indexed": true,
          "internalType": "uint256",
          "name": "recordId",
          "type": "uint256"
        },
        {
          "indexed": true,
          "internalType": "address",
          "name": "student",
          "type": "address"
        },
        {
          "indexed": false,
          "internalType": "string",
          "name": "institution",
          "type": "string"
        }
      ],
      "name": "AcademicRecordAdded",
      "type": "event"
    },
    {
      "anonymous": false,
      "inputs": [
        {
          "indexed": true,
          "internalType": "uint256",
          "name": "credentialId",
          "type": "uint256"
        },
        {
          "indexed": true,
          "internalType": "address",
          "name": "owner",
          "type": "address"
        },
        {
          "indexed": false,
          "internalType": "string",
          "name": "credentialType",
          "type": "string"
        }
      ],
      "name": "CredentialIssued",
      "type": "event"
    },
    {
      "anonymous": false,
      "inputs": [
        {
          "indexed": true,
          "internalType": "uint256",
          "name": "profileId",
          "type": "uint256"
        },
        {
          "indexed": true,
          "internalType": "address",
          "name": "scholar",
          "type": "address"
        },
        {
          "indexed": false,
          "internalType": "string",
          "name": "name",
          "type": "string"
        }
      ],
      "name": "ProfileCreated",
      "type": "event"
    },
    {
      "anonymous": false,
      "inputs": [
        {
          "indexed": true,
          "internalType": "address",
          "name": "user",
          "type": "address"
        },
        {
          "indexed": false,
          "internalType": "uint32",
          "name": "reputation",
          "type": "uint32"
        }
      ],
      "name": "ReputationUpdated",
      "type": "event"
    },
    {
      "anonymous": false,
      "inputs": [
        {
          "indexed": true,
          "internalType": "uint256",
          "name": "requestId",
          "type": "uint256"
        },
        {
          "indexed": false,
          "internalType": "bool",
          "name": "isApproved",
          "type": "bool"
        },
        {
          "indexed": true,
          "internalType": "address",
          "name": "verifier",
          "type": "address"
        }
      ],
      "name": "VerificationProcessed",
      "type": "event"
    },
    {
      "anonymous": false,
      "inputs": [
        {
          "indexed": true,
          "internalType": "uint256",
          "name": "requestId",
          "type": "uint256"
        },
        {
          "indexed": true,
          "internalType": "address",
          "name": "requester",
          "type": "address"
        },
        {
          "indexed": false,
          "internalType": "string",
          "name": "requestType",
          "type": "string"
        }
      ],
      "name": "VerificationRequested",
      "type": "event"
    },
    {
      "inputs": [
        {
          "internalType": "uint256",
          "name": "",
          "type": "uint256"
        }
      ],
      "name": "academicRecords",
      "outputs": [
        {
          "internalType": "euint32",
          "name": "recordId",
          "type": "bytes32"
        },
        {
          "internalType": "euint32",
          "name": "gpa",
          "type": "bytes32"
        },
        {
          "internalType": "euint32",
          "name": "creditHours",
          "type": "bytes32"
        },
        {
          "internalType": "euint32",
          "name": "semesterCount",
          "type": "bytes32"
        },
        {
          "internalType": "bool",
          "name": "isGraduated",
          "type": "bool"
        },
        {
          "internalType": "string",
          "name": "degreeType",
          "type": "string"
        },
        {
          "internalType": "string",
          "name": "major",
          "type": "string"
        },
        {
          "internalType": "string",
          "name": "institution",
          "type": "string"
        },
        {
          "internalType": "address",
          "name": "student",
          "type": "address"
        },
        {
          "internalType": "uint256",
          "name": "enrollmentDate",
          "type": "uint256"
        },
        {
          "internalType": "uint256",
          "name": "graduationDate",
          "type": "uint256"
        }
      ],
      "stateMutability": "view",
      "type": "function"
    },
    {
      "inputs": [
        {
          "internalType": "address",
          "name": "student",
          "type": "address"
        },
        {
          "internalType": "string",
          "name": "degreeType",
          "type": "string"
        },
        {
          "internalType": "externalEuint32",
          "name": "gpa",
          "type": "bytes32"
        },
        {
          "internalType": "bytes",
          "name": "inputProof",
          "type": "bytes"
        }
      ],
      "name": "addAcademicRecord",
      "outputs": [
        {
          "internalType": "uint256",
          "name": "",
          "type": "uint256"
        }
      ],
      "stateMutability": "nonpayable",
      "type": "function"
    },
    {
      "inputs": [
        {
          "internalType": "string",
          "name": "_name",
          "type": "string"
        },
        {
          "internalType": "string",
          "name": "_institution",
          "type": "string"
        },
        {
          "internalType": "string",
          "name": "_specialization",
          "type": "string"
        },
        {
          "internalType": "externalEuint32",
          "name": "academicScore",
          "type": "bytes32"
        },
        {
          "internalType": "bytes",
          "name": "inputProof",
          "type": "bytes"
        }
      ],
      "name": "createScholarProfile",
      "outputs": [
        {
          "internalType": "uint256",
          "name": "",
          "type": "uint256"
        }
      ],
      "stateMutability": "nonpayable",
      "type": "function"
    },
    {
      "inputs": [],
      "name": "credentialCounter",
      "outputs": [
        {
          "internalType": "uint256",
          "name": "",
          "type": "uint256"
        }
      ],
      "stateMutability": "view",
      "type": "function"
    },
    {
      "inputs": [
        {
          "internalType": "uint256",
          "name": "",
          "type": "uint256"
        }
      ],
      "name": "credentials",
      "outputs": [
        {
          "internalType": "euint32",
          "name": "credentialId",
          "type": "bytes32"
        },
        {
          "internalType": "euint32",
          "name": "score",
          "type": "bytes32"
        },
        {
          "internalType": "euint32",
          "name": "validityPeriod",
          "type": "bytes32"
        },
        {
          "internalType": "bool",
          "name": "isRevoked",
          "type": "bool"
        },
        {
          "internalType": "bool",
          "name": "isVerified",
          "type": "bool"
        },
        {
          "internalType": "string",
          "name": "credentialType",
          "type": "string"
        },
        {
          "internalType": "string",
          "name": "issuer",
          "type": "string"
        },
        {
          "internalType": "string",
          "name": "metadataHash",
          "type": "string"
        },
        {
          "internalType": "address",
          "name": "owner",
          "type": "address"
        },
        {
          "internalType": "uint256",
          "name": "issuedAt",
          "type": "uint256"
        },
        {
          "internalType": "uint256",
          "name": "expiresAt",
          "type": "uint256"
        }
      ],
      "stateMutability": "view",
      "type": "function"
    },
    {
      "inputs": [
        {
          "internalType": "uint256",
          "name": "recordId",
          "type": "uint256"
        }
      ],
      "name": "getAcademicRecordEncryptedData",
      "outputs": [
        {
          "internalType": "bytes32",
          "name": "gpa",
          "type": "bytes32"
        },
        {
          "internalType": "bytes32",
          "name": "creditHours",
          "type": "bytes32"
        },
        {
          "internalType": "bytes32",
          "name": "semesterCount",
          "type": "bytes32"
        },
        {
          "internalType": "bool",
          "name": "isGraduated",
          "type": "bool"
        },
        {
          "internalType": "string",
          "name": "degreeType",
          "type": "string"
        },
        {
          "internalType": "string",
          "name": "major",
          "type": "string"
        },
        {
          "internalType": "string",
          "name": "institution",
          "type": "string"
        },
        {
          "internalType": "address",
          "name": "student",
          "type": "address"
        },
        {
          "internalType": "uint256",
          "name": "enrollmentDate",
          "type": "uint256"
        },
        {
          "internalType": "uint256",
          "name": "graduationDate",
          "type": "uint256"
        }
      ],
      "stateMutability": "view",
      "type": "function"
    },
    {
      "inputs": [
        {
          "internalType": "uint256",
          "name": "recordId",
          "type": "uint256"
        }
      ],
      "name": "getAcademicRecordInfo",
      "outputs": [
        {
          "internalType": "uint8",
          "name": "gpa",
          "type": "uint8"
        },
        {
          "internalType": "uint8",
          "name": "creditHours",
          "type": "uint8"
        },
        {
          "internalType": "uint8",
          "name": "semesterCount",
          "type": "uint8"
        },
        {
          "internalType": "bool",
          "name": "isGraduated",
          "type": "bool"
        },
        {
          "internalType": "string",
          "name": "degreeType",
          "type": "string"
        },
        {
          "internalType": "string",
          "name": "major",
          "type": "string"
        },
        {
          "internalType": "string",
          "name": "institution",
          "type": "string"
        },
        {
          "internalType": "address",
          "name": "student",
          "type": "address"
        },
        {
          "internalType": "uint256",
          "name": "enrollmentDate",
          "type": "uint256"
        },
        {
          "internalType": "uint256",
          "name": "graduationDate",
          "type": "uint256"
        }
      ],
      "stateMutability": "view",
      "type": "function"
    },
    {
      "inputs": [
        {
          "internalType": "uint256",
          "name": "credentialId",
          "type": "uint256"
        }
      ],
      "name": "getCredentialEncryptedData",
      "outputs": [
        {
          "internalType": "bytes32",
          "name": "score",
          "type": "bytes32"
        },
        {
          "internalType": "bytes32",
          "name": "validityPeriod",
          "type": "bytes32"
        },
        {
          "internalType": "bool",
          "name": "isRevoked",
          "type": "bool"
        },
        {
          "internalType": "bool",
          "name": "isVerified",
          "type": "bool"
        },
        {
          "internalType": "string",
          "name": "credentialType",
          "type": "string"
        },
        {
          "internalType": "string",
          "name": "issuer",
          "type": "string"
        },
        {
          "internalType": "string",
          "name": "metadataHash",
          "type": "string"
        },
        {
          "internalType": "address",
          "name": "credentialOwner",
          "type": "address"
        },
        {
          "internalType": "uint256",
          "name": "issuedAt",
          "type": "uint256"
        },
        {
          "internalType": "uint256",
          "name": "expiresAt",
          "type": "uint256"
        }
      ],
      "stateMutability": "view",
      "type": "function"
    },
    {
      "inputs": [
        {
          "internalType": "uint256",
          "name": "credentialId",
          "type": "uint256"
        }
      ],
      "name": "getCredentialInfo",
      "outputs": [
        {
          "internalType": "uint8",
          "name": "score",
          "type": "uint8"
        },
        {
          "internalType": "uint8",
          "name": "validityPeriod",
          "type": "uint8"
        },
        {
          "internalType": "bool",
          "name": "isRevoked",
          "type": "bool"
        },
        {
          "internalType": "bool",
          "name": "isVerified",
          "type": "bool"
        },
        {
          "internalType": "string",
          "name": "credentialType",
          "type": "string"
        },
        {
          "internalType": "string",
          "name": "issuer",
          "type": "string"
        },
        {
          "internalType": "string",
          "name": "metadataHash",
          "type": "string"
        },
        {
          "internalType": "address",
          "name": "credentialOwner",
          "type": "address"
        },
        {
          "internalType": "uint256",
          "name": "issuedAt",
          "type": "uint256"
        },
        {
          "internalType": "uint256",
          "name": "expiresAt",
          "type": "uint256"
        }
      ],
      "stateMutability": "view",
      "type": "function"
    },
    {
      "inputs": [
        {
          "internalType": "address",
          "name": "institution",
          "type": "address"
        }
      ],
      "name": "getInstitutionReputation",
      "outputs": [
        {
          "internalType": "uint8",
          "name": "",
          "type": "uint8"
        }
      ],
      "stateMutability": "view",
      "type": "function"
    },
    {
      "inputs": [
        {
          "internalType": "uint256",
          "name": "profileId",
          "type": "uint256"
        }
      ],
      "name": "getScholarEncryptedData",
      "outputs": [
        {
          "internalType": "bytes32",
          "name": "academicScore",
          "type": "bytes32"
        },
        {
          "internalType": "bytes32",
          "name": "verificationLevel",
          "type": "bytes32"
        },
        {
          "internalType": "bytes32",
          "name": "reputationScore",
          "type": "bytes32"
        },
        {
          "internalType": "string",
          "name": "name",
          "type": "string"
        },
        {
          "internalType": "string",
          "name": "institution",
          "type": "string"
        },
        {
          "internalType": "string",
          "name": "specialization",
          "type": "string"
        },
        {
          "internalType": "address",
          "name": "scholar",
          "type": "address"
        },
        {
          "internalType": "bool",
          "name": "isVerified",
          "type": "bool"
        },
        {
          "internalType": "bool",
          "name": "isActive",
          "type": "bool"
        },
        {
          "internalType": "uint256",
          "name": "createdAt",
          "type": "uint256"
        },
        {
          "internalType": "uint256",
          "name": "lastUpdated",
          "type": "uint256"
        }
      ],
      "stateMutability": "view",
      "type": "function"
    },
    {
      "inputs": [
        {
          "internalType": "uint256",
          "name": "profileId",
          "type": "uint256"
        }
      ],
      "name": "getScholarProfileInfo",
      "outputs": [
        {
          "internalType": "string",
          "name": "name",
          "type": "string"
        },
        {
          "internalType": "string",
          "name": "institution",
          "type": "string"
        },
        {
          "internalType": "string",
          "name": "specialization",
          "type": "string"
        },
        {
          "internalType": "uint8",
          "name": "academicScore",
          "type": "uint8"
        },
        {
          "internalType": "uint8",
          "name": "verificationLevel",
          "type": "uint8"
        },
        {
          "internalType": "uint8",
          "name": "reputationScore",
          "type": "uint8"
        },
        {
          "internalType": "bool",
          "name": "isVerified",
          "type": "bool"
        },
        {
          "internalType": "bool",
          "name": "isActive",
          "type": "bool"
        },
        {
          "internalType": "address",
          "name": "scholar",
          "type": "address"
        },
        {
          "internalType": "uint256",
          "name": "createdAt",
          "type": "uint256"
        },
        {
          "internalType": "uint256",
          "name": "lastUpdated",
          "type": "uint256"
        }
      ],
      "stateMutability": "view",
      "type": "function"
    },
    {
      "inputs": [
        {
          "internalType": "address",
          "name": "scholar",
          "type": "address"
        }
      ],
      "name": "getScholarReputation",
      "outputs": [
        {
          "internalType": "uint8",
          "name": "",
          "type": "uint8"
        }
      ],
      "stateMutability": "view",
      "type": "function"
    },
    {
      "inputs": [
        {
          "internalType": "uint256",
          "name": "requestId",
          "type": "uint256"
        }
      ],
      "name": "getVerificationRequestInfo",
      "outputs": [
        {
          "internalType": "uint8",
          "name": "verificationScore",
          "type": "uint8"
        },
        {
          "internalType": "bool",
          "name": "isApproved",
          "type": "bool"
        },
        {
          "internalType": "bool",
          "name": "isProcessed",
          "type": "bool"
        },
        {
          "internalType": "string",
          "name": "requestType",
          "type": "string"
        },
        {
          "internalType": "string",
          "name": "evidenceHash",
          "type": "string"
        },
        {
          "internalType": "address",
          "name": "requester",
          "type": "address"
        },
        {
          "internalType": "address",
          "name": "verifierAddress",
          "type": "address"
        },
        {
          "internalType": "uint256",
          "name": "submittedAt",
          "type": "uint256"
        },
        {
          "internalType": "uint256",
          "name": "processedAt",
          "type": "uint256"
        }
      ],
      "stateMutability": "view",
      "type": "function"
    },
    {
      "inputs": [],
      "name": "institutionManager",
      "outputs": [
        {
          "internalType": "address",
          "name": "",
          "type": "address"
        }
      ],
      "stateMutability": "view",
      "type": "function"
    },
    {
      "inputs": [
        {
          "internalType": "address",
          "name": "",
          "type": "address"
        }
      ],
      "name": "institutionReputation",
      "outputs": [
        {
          "internalType": "euint32",
          "name": "",
          "type": "bytes32"
        }
      ],
      "stateMutability": "view",
      "type": "function"
    },
    {
      "inputs": [
        {
          "internalType": "address",
          "name": "_owner",
          "type": "address"
        },
        {
          "internalType": "string",
          "name": "_credentialType",
          "type": "string"
        },
        {
          "internalType": "string",
          "name": "_issuer",
          "type": "string"
        },
        {
          "internalType": "string",
          "name": "_metadataHash",
          "type": "string"
        },
        {
          "internalType": "externalEuint32",
          "name": "score",
          "type": "bytes32"
        },
        {
          "internalType": "externalEuint32",
          "name": "validityPeriod",
          "type": "bytes32"
        },
        {
          "internalType": "bytes",
          "name": "inputProof",
          "type": "bytes"
        }
      ],
      "name": "issueCredential",
      "outputs": [
        {
          "internalType": "uint256",
          "name": "",
          "type": "uint256"
        }
      ],
      "stateMutability": "nonpayable",
      "type": "function"
    },
    {
      "inputs": [],
      "name": "owner",
      "outputs": [
        {
          "internalType": "address",
          "name": "",
          "type": "address"
        }
      ],
      "stateMutability": "view",
      "type": "function"
    },
    {
      "inputs": [
        {
          "internalType": "uint256",
          "name": "requestId",
          "type": "uint256"
        },
        {
          "internalType": "bool",
          "name": "isApproved",
          "type": "bool"
        }
      ],
      "name": "processVerificationRequest",
      "outputs": [],
      "stateMutability": "nonpayable",
      "type": "function"
    },
    {
      "inputs": [],
      "name": "profileCounter",
      "outputs": [
        {
          "internalType": "uint256",
          "name": "",
          "type": "uint256"
        }
      ],
      "stateMutability": "view",
      "type": "function"
    },
    {
      "inputs": [],
      "name": "protocolId",
      "outputs": [
        {
          "internalType": "uint256",
          "name": "",
          "type": "uint256"
        }
      ],
      "stateMutability": "pure",
      "type": "function"
    },
    {
      "inputs": [],
      "name": "recordCounter",
      "outputs": [
        {
          "internalType": "uint256",
          "name": "",
          "type": "uint256"
        }
      ],
      "stateMutability": "view",
      "type": "function"
    },
    {
      "inputs": [],
      "name": "requestCounter",
      "outputs": [
        {
          "internalType": "uint256",
          "name": "",
          "type": "uint256"
        }
      ],
      "stateMutability": "view",
      "type": "function"
    },
    {
      "inputs": [
        {
          "internalType": "uint256",
          "name": "credentialId",
          "type": "uint256"
        }
      ],
      "name": "revokeCredential",
      "outputs": [],
      "stateMutability": "nonpayable",
      "type": "function"
    },
    {
      "inputs": [
        {
          "internalType": "uint256",
          "name": "",
          "type": "uint256"
        }
      ],
      "name": "scholarProfiles",
      "outputs": [
        {
          "internalType": "euint32",
          "name": "profileId",
          "type": "bytes32"
        },
        {
          "internalType": "euint32",
          "name": "academicScore",
          "type": "bytes32"
        },
        {
          "internalType": "euint32",
          "name": "verificationLevel",
          "type": "bytes32"
        },
        {
          "internalType": "euint32",
          "name": "reputationScore",
          "type": "bytes32"
        },
        {
          "internalType": "bool",
          "name": "isVerified",
          "type": "bool"
        },
        {
          "internalType": "bool",
          "name": "isActive",
          "type": "bool"
        },
        {
          "internalType": "string",
          "name": "name",
          "type": "string"
        },
        {
          "internalType": "string",
          "name": "institution",
          "type": "string"
        },
        {
          "internalType": "string",
          "name": "specialization",
          "type": "string"
        },
        {
          "internalType": "address",
          "name": "scholar",
          "type": "address"
        },
        {
          "internalType": "uint256",
          "name": "createdAt",
          "type": "uint256"
        },
        {
          "internalType": "uint256",
          "name": "lastUpdated",
          "type": "uint256"
        }
      ],
      "stateMutability": "view",
      "type": "function"
    },
    {
      "inputs": [
        {
          "internalType": "address",
          "name": "",
          "type": "address"
        }
      ],
      "name": "scholarReputation",
      "outputs": [
        {
          "internalType": "euint32",
          "name": "",
          "type": "bytes32"
        }
      ],
      "stateMutability": "view",
      "type": "function"
    },
    {
      "inputs": [
        {
          "internalType": "string",
          "name": "_requestType",
          "type": "string"
        },
        {
          "internalType": "string",
          "name": "_evidenceHash",
          "type": "string"
        },
        {
          "internalType": "externalEuint32",
          "name": "verificationScore",
          "type": "bytes32"
        },
        {
          "internalType": "bytes",
          "name": "inputProof",
          "type": "bytes"
        }
      ],
      "name": "submitVerificationRequest",
      "outputs": [
        {
          "internalType": "uint256",
          "name": "",
          "type": "uint256"
        }
      ],
      "stateMutability": "nonpayable",
      "type": "function"
    },
    {
      "inputs": [
        {
          "internalType": "address",
          "name": "user",
          "type": "address"
        },
        {
          "internalType": "euint32",
          "name": "reputation",
          "type": "bytes32"
        }
      ],
      "name": "updateReputation",
      "outputs": [],
      "stateMutability": "nonpayable",
      "type": "function"
    },
    {
      "inputs": [
        {
          "internalType": "uint256",
          "name": "",
          "type": "uint256"
        }
      ],
      "name": "verificationRequests",
      "outputs": [
        {
          "internalType": "euint32",
          "name": "requestId",
          "type": "bytes32"
        },
        {
          "internalType": "euint32",
          "name": "verificationScore",
          "type": "bytes32"
        },
        {
          "internalType": "bool",
          "name": "isApproved",
          "type": "bool"
        },
        {
          "internalType": "bool",
          "name": "isProcessed",
          "type": "bool"
        },
        {
          "internalType": "string",
          "name": "requestType",
          "type": "string"
        },
        {
          "internalType": "string",
          "name": "evidenceHash",
          "type": "string"
        },
        {
          "internalType": "address",
          "name": "requester",
          "type": "address"
        },
        {
          "internalType": "address",
          "name": "verifier",
          "type": "address"
        },
        {
          "internalType": "uint256",
          "name": "submittedAt",
          "type": "uint256"
        },
        {
          "internalType": "uint256",
          "name": "processedAt",
          "type": "uint256"
        }
      ],
      "stateMutability": "view",
      "type": "function"
    },
    {
      "inputs": [],
      "name": "verifier",
      "outputs": [
        {
          "internalType": "address",
          "name": "",
          "type": "address"
        }
      ],
      "stateMutability": "view",
      "type": "function"
    }
  ],
  "bytecode": "0x60806040523480156200001157600080fd5b506040516200375f3803806200375f83398101604081905262000034916200020b565b620001b1620000d5604080516080810182526000808252602082018190529181018290526060810191909152506040805160808101825273687820221192c5b662b25367f70076a37bc79b6c815273848b0066793bcc60346da1f49049357399b8d595602082015273a02cda4ca3a71d7c46997716f4283aa851c2881291810191909152731364cbbf2cdf5032c47d8226a6f6fbd2afcdacac606082015290565b80517f9e7b61f58c47dc699ac88507c4f5bb9f121c03808c5676a8078fe583e464970080546001600160a01b03199081166001600160a01b039384161790915560208301517f9e7b61f58c47dc699ac88507c4f5bb9f121c03808c5676a8078fe583e46497018054831691841691909117905560408301517f9e7b61f58c47dc699ac88507c4f5bb9f121c03808c5676a8078fe583e46497028054831691841691909117905560608301517f9e7b61f58c47dc699ac88507c4f5bb9f121c03808c5676a8078fe583e46497038054909216921691909117905550565b600a80546001600160a01b03199081163317909155600b80546001600160a01b03948516908316179055600c805492909316911617905562000243565b80516001600160a01b03811681146200020657600080fd5b919050565b600080604083850312156200021f57600080fd5b6200022a83620001ee565b91506200023a60208401620001ee565b90509250929050565b61350c80620002536000396000f3fe608060405234801561001057600080fd5b50600436106101da5760003560e01c80638da5cb5b11610104578063d7e0bb99116100a2578063e0574e3f11610071578063e0574e3f146104c1578063ef6693361461023a578063f7aa022c146104eb578063fbb9eccd146104fe57600080fd5b8063d7e0bb9914610453578063d821ae051461047d578063da1f12ab14610490578063ddc7e7091461049857600080fd5b8063973a814e116100de578063973a814e1461040e578063aa9c988714610417578063aae064251461042a578063c83af4151461043357600080fd5b80638da5cb5b146103df578063902b36cd146103f257806390c74d5e1461040557600080fd5b80633b0e2c5d1161017c5780635feff26c1161014b5780635feff26c1461036e5780637599be5d1461039857806381d61ee6146103a157806389b3dd06146103cc57600080fd5b80633b0e2c5d146102e95780634089d49f146103095780634f295b781461033257806351dad3fe1461035b57600080fd5b80631a7cf409116101b85780631a7cf409146102605780631b87278d146102885780632b7ac3f31461029d578063397ee67d146102c857600080fd5b8063149764da146101df57806319fea922146102115780631a3cad4a1461023a575b600080fd5b6101f26101ed3660046129be565b610528565b6040516102089a99989796959493929190612a1d565b60405180910390f35b61022461021f3660046129be565b610769565b6040516102089a99989796959493929190612aa1565b61024e610248366004612af4565b50600090565b60405160ff9091168152602001610208565b61027361026e3660046129be565b6107e0565b60405161020899989796959493929190612b0f565b61029b6102963660046129be565b610980565b005b600b546102b0906001600160a01b031681565b6040516001600160a01b039091168152602001610208565b6102db6102d6366004612c6f565b610a7f565b604051908152602001610208565b6102db6102f7366004612af4565b60046020526000908152604090205481565b61031c6103173660046129be565b610e3f565b6040516102089a99989796959493929190612d46565b6103456103403660046129be565b610fb6565b6040516102089a99989796959493929190612dbf565b6102db610369366004612def565b611034565b61038161037c3660046129be565b611397565b6040516102089b9a99989796959493929190612eac565b6102db60095481565b6103b46103af3660046129be565b611597565b6040516102089c9b9a99989796959493929190612f38565b61029b6103da366004612fce565b61179f565b600a546102b0906001600160a01b031681565b600c546102b0906001600160a01b031681565b6102db60065481565b6102db60085481565b6102db610425366004612ff8565b61190f565b6102db60075481565b6102db610441366004612af4565b60056020526000908152604090205481565b6104666104613660046129be565b611b77565b6040516102089b9a99989796959493929190613091565b6102db61048b36600461311a565b611dbd565b6127116102db565b6104ab6104a63660046129be565b612081565b6040516102089a99989796959493929190613158565b6104d46104cf3660046129be565b6120f3565b6040516102089b9a9998979695949392919061318e565b61029b6104f93660046131c4565b6122f4565b61051161050c3660046129be565b6124b0565b6040516102089b9a999897969594939291906131f9565b6000806000806060806060600080600080600360008d81526020019081526020016000209050610559816001015490565b600282015460038301548360040160009054906101000a900460ff168460050185600601866007018760080160009054906101000a90046001600160a01b0316886009015489600a01548580546105af90613294565b80601f01602080910402602001604051908101604052809291908181526020018280546105db90613294565b80156106285780601f106105fd57610100808354040283529160200191610628565b820191906000526020600020905b81548152906001019060200180831161060b57829003601f168201915b5050505050955084805461063b90613294565b80601f016020809104026020016040519081016040528092919081815260200182805461066790613294565b80156106b45780601f10610689576101008083540402835291602001916106b4565b820191906000526020600020905b81548152906001019060200180831161069757829003601f168201915b505050505094508380546106c790613294565b80601f01602080910402602001604051908101604052809291908181526020018280546106f390613294565b80156107405780601f1061071557610100808354040283529160200191610740565b820191906000526020600020905b81548152906001019060200180831161072357829003601f168201915b505050505093509a509a509a509a509a509a509a509a509a509a50509193959799509193959799565b6000806000806060806060600080600080600360008d8152602001908152602001600020905060008060008360040160009054906101000a900460ff168460050185600601866007018760080160009054906101000a90046001600160a01b0316886009015489600a01548580546105af90613294565b600081815260026020819052604082209081015460058201546006830154600784015460088501546003860180548897889760609788978a97889788978897889660ff808216976101009092041695929460048a01946001600160a01b039283169490921692909190869061085490613294565b80601f016020809104026020016040519081016040528092919081815260200182805461088090613294565b80156108cd5780601f106108a2576101008083540402835291602001916108cd565b820191906000526020600020905b8154815290600101906020018083116108b057829003601f168201915b505050505095508480546108e090613294565b80601f016020809104026020016040519081016040528092919081815260200182805461090c90613294565b80156109595780601f1061092e57610100808354040283529160200191610959565b820191906000526020600020905b81548152906001019060200180831161093c57829003601f168201915b50505050509450995099509950995099509950995099509950509193959799909294969850565b600c546001600160a01b031633146109f75760405162461bcd60e51b815260206004820152602f60248201527f4f6e6c7920696e737469747574696f6e206d616e616765722063616e2072657660448201526e6f6b652063726564656e7469616c7360881b60648201526084015b60405180910390fd5b6000818152600160205260409020600701546001600160a01b0316610a5e5760405162461bcd60e51b815260206004820152601960248201527f43726564656e7469616c20646f6573206e6f742065786973740000000000000060448201526064016109ee565b6000908152600160208190526040909120600301805460ff19169091179055565b600c546000906001600160a01b03163314610af35760405162461bcd60e51b815260206004820152602e60248201527f4f6e6c7920696e737469747574696f6e206d616e616765722063616e2069737360448201526d75652063726564656e7469616c7360901b60648201526084016109ee565b6001600160a01b038916610b415760405162461bcd60e51b8152602060048201526015602482015274496e76616c6964206f776e6572206164647265737360581b60448201526064016109ee565b6000885111610b925760405162461bcd60e51b815260206004820152601f60248201527f43726564656e7469616c20747970652063616e6e6f7420626520656d7074790060448201526064016109ee565b6007805460009182610ba3836132e4565b9190505590506000610beb8786868080601f0160208091040260200160405190810160405280939291908181526020018383808284376000920191909152506126f892505050565b90506000610c2f8787878080601f0160208091040260200160405190810160405280939291908181526020018383808284376000920191909152506126f892505050565b9050604051806101600160405280610c468561270f565b81526020018381526020018281526020016000151581526020016001151581526020018c81526020018b81526020018a81526020018d6001600160a01b03168152602001428152602001426301e13380610ca091906132fd565b90526000848152600160208181526040928390208451815590840151918101919091559082015160028201556060820151600382018054608085015115156101000261ff00199315159390931661ffff199091161791909117905560a08201516004820190610d0f9082613361565b5060c08201516005820190610d249082613361565b5060e08201516006820190610d399082613361565b506101008201516007820180546001600160a01b0319166001600160a01b0390921691909117905561012082015160088201556101409091015160099091015560008381526001602081905260409091200154610d9590612722565b5060008381526001602081905260409091200154610db3908d612732565b50600083815260016020526040902060020154610dcf90612722565b50600083815260016020526040902060020154610dec908d612732565b508b6001600160a01b0316837ff03729c4e45d56313830b69839594a662bd953079e350899f22c95272f29567f8d604051610e279190613421565b60405180910390a350909a9950505050505050505050565b6002602081905260009182526040909120805460018201549282015460038301805492949360ff808416946101009094041692909190610e7e90613294565b80601f0160208091040260200160405190810160405280929190818152602001828054610eaa90613294565b8015610ef75780601f10610ecc57610100808354040283529160200191610ef7565b820191906000526020600020905b815481529060010190602001808311610eda57829003601f168201915b505050505090806004018054610f0c90613294565b80601f0160208091040260200160405190810160405280929190818152602001828054610f3890613294565b8015610f855780601f10610f5a57610100808354040283529160200191610f85565b820191906000526020600020905b815481529060010190602001808311610f6857829003601f168201915b5050505060058301546006840154600785015460089095015493946001600160a01b0392831694929091169250908a565b6000806000806060806060600080600080600160008d81526020019081526020016000209050610fe7816001015490565b6002820154600383015460078401546008850154600986015460048701805460ff8087169661010090041694919360058a019360068b01936001600160a01b03169286906105af90613294565b60008087511161107d5760405162461bcd60e51b81526020600482015260146024820152734e616d652063616e6e6f7420626520656d70747960601b60448201526064016109ee565b60008651116110ce5760405162461bcd60e51b815260206004820152601b60248201527f496e737469747574696f6e2063616e6e6f7420626520656d707479000000000060448201526064016109ee565b60068054600091826110df836132e4565b91905055905060006111278686868080601f0160208091040260200160405190810160405280939291908181526020018383808284376000920191909152506126f892505050565b905060405180610180016040528061113e8461270f565b8152602001828152602001611153600061270f565b8152602001611162600061270f565b81526020016000151581526020016001151581526020018a8152602001898152602001888152602001336001600160a01b03168152602001428152602001428152506000808481526020019081526020016000206000820151816000015560208201518160010155604082015181600201556060820151816003015560808201518160040160006101000a81548160ff02191690831515021790555060a08201518160040160016101000a81548160ff02191690831515021790555060c08201518160050190816112339190613361565b5060e082015160068201906112489082613361565b50610100820151600782019061125e9082613361565b506101208201516008820180546001600160a01b0319166001600160a01b03909216919091179055610140820151600982015561016090910151600a909101556000828152602081905260409020600101546112b990612722565b506000828152602081905260409020600101546112d69033612732565b506000828152602081905260409020600201546112f290612722565b5060008281526020819052604090206002015461130f9033612732565b5060008281526020819052604090206003015461132b90612722565b506000828152602081905260409020600301546113489033612732565b50336001600160a01b0316827f64849d9017ccd37161417597e9733299a671f98dcb0907422672a2e159eb12178b6040516113839190613421565b60405180910390a350979650505050505050565b6003602081905260009182526040909120805460018201546002830154938301546004840154600585018054949693959394929360ff909216926113da90613294565b80601f016020809104026020016040519081016040528092919081815260200182805461140690613294565b80156114535780601f1061142857610100808354040283529160200191611453565b820191906000526020600020905b81548152906001019060200180831161143657829003601f168201915b50505050509080600601805461146890613294565b80601f016020809104026020016040519081016040528092919081815260200182805461149490613294565b80156114e15780601f106114b6576101008083540402835291602001916114e1565b820191906000526020600020905b8154815290600101906020018083116114c457829003601f168201915b5050505050908060070180546114f690613294565b80601f016020809104026020016040519081016040528092919081815260200182805461152290613294565b801561156f5780601f106115445761010080835404028352916020019161156f565b820191906000526020600020905b81548152906001019060200180831161155257829003601f168201915b5050505060088301546009840154600a9094015492936001600160a01b03909116929091508b565b600060208190529081526040902080546001820154600283015460038401546004850154600586018054959694959394929360ff80841694610100909404169291906115e290613294565b80601f016020809104026020016040519081016040528092919081815260200182805461160e90613294565b801561165b5780601f106116305761010080835404028352916020019161165b565b820191906000526020600020905b81548152906001019060200180831161163e57829003601f168201915b50505050509080600601805461167090613294565b80601f016020809104026020016040519081016040528092919081815260200182805461169c90613294565b80156116e95780601f106116be576101008083540402835291602001916116e9565b820191906000526020600020905b8154815290600101906020018083116116cc57829003601f168201915b5050505050908060070180546116fe90613294565b80601f016020809104026020016040519081016040528092919081815260200182805461172a90613294565b80156117775780601f1061174c57610100808354040283529160200191611777565b820191906000526020600020905b81548152906001019060200180831161175a57829003601f168201915b5050505060088301546009840154600a9094015492936001600160a01b03909116929091508c565b600b546001600160a01b031633146118055760405162461bcd60e51b815260206004820152602360248201527f4f6e6c792076657269666965722063616e20757064617465207265707574617460448201526234b7b760e91b60648201526084016109ee565b6001600160a01b0382166118525760405162461bcd60e51b8152602060048201526014602482015273496e76616c69642075736572206164647265737360601b60448201526064016109ee565b816001600160a01b0316600080600160065461186e9190613434565b81526020810191909152604001600020600801546001600160a01b0316036118b0576001600160a01b03821660009081526004602052604090208190556118cc565b6001600160a01b03821660009081526005602052604090208190555b604051600081526001600160a01b038316907fbc29a8e6655836a9c09ee2d874d0ec6df064e0b7d9d9dd0f097ad3f2874ed9869060200160405180910390a25050565b6000808651116119615760405162461bcd60e51b815260206004820152601c60248201527f5265717565737420747970652063616e6e6f7420626520656d7074790000000060448201526064016109ee565b60008551116119b25760405162461bcd60e51b815260206004820152601d60248201527f45766964656e636520686173682063616e6e6f7420626520656d70747900000060448201526064016109ee565b60088054600091826119c3836132e4565b9190505590506000611a0b8686868080601f0160208091040260200160405190810160405280939291908181526020018383808284376000920191909152506126f892505050565b9050604051806101400160405280611a228461270f565b8152602080820184905260006040808401829052606080850183905260808086018f905260a086018e90523360c087015260e0860184905242610100808801919091526101209096018490528884526002808652938390208751815594870151600186015591860151928401805491870151151590950261ff00199315159390931661ffff199091161791909117909255908201516003820190611ac69082613361565b5060a08201516004820190611adb9082613361565b5060c08201516005820180546001600160a01b039283166001600160a01b03199182161790915560e0840151600684018054919093169116179055610100820151600782015561012090910151600890910155604051339083907fa34e1dd2e50439a3590264f0b2c8d97c220efc7ef0fbe5a3552280b9b128c84490611b62908c90613421565b60405180910390a35090505b95945050505050565b600080600060608060606000806000806000806000808e81526020019081526020016000209050611ba9816001015490565b60028201546003830154600884015460048501546009860154600a870154600588018054909460068a019460078b01946001600160a01b039092169360ff808316946101009093041692918890611bff90613294565b80601f0160208091040260200160405190810160405280929190818152602001828054611c2b90613294565b8015611c785780601f10611c4d57610100808354040283529160200191611c78565b820191906000526020600020905b815481529060010190602001808311611c5b57829003601f168201915b50505050509750868054611c8b90613294565b80601f0160208091040260200160405190810160405280929190818152602001828054611cb790613294565b8015611d045780601f10611cd957610100808354040283529160200191611d04565b820191906000526020600020905b815481529060010190602001808311611ce757829003601f168201915b50505050509650858054611d1790613294565b80601f0160208091040260200160405190810160405280929190818152602001828054611d4390613294565b8015611d905780601f10611d6557610100808354040283529160200191611d90565b820191906000526020600020905b815481529060010190602001808311611d7357829003601f168201915b505050505095509b509b509b509b509b509b509b509b509b509b509b505091939597999b90929496989a50565b600c546000906001600160a01b03163314611e2b5760405162461bcd60e51b815260206004820152602860248201527f4f6e6c7920696e737469747574696f6e206d616e616765722063616e20616464604482015267207265636f72647360c01b60648201526084016109ee565b6001600160a01b038616611e815760405162461bcd60e51b815260206004820152601760248201527f496e76616c69642073747564656e74206164647265737300000000000000000060448201526064016109ee565b6009805460009182611e92836132e4565b9190505590506000611eda8686868080601f0160208091040260200160405190810160405280939291908181526020018383808284376000920191909152506126f892505050565b9050604051806101600160405280611ef18461270f565b8152602001828152602001611f06600061270f565b8152602001611f15600061270f565b8152602001600015158152602001888152602001604051806020016040528060008152508152602001604051806020016040528060008152508152602001896001600160a01b031681526020014281526020016000815250600360008481526020019081526020016000206000820151816000015560208201518160010155604082015181600201556060820151816003015560808201518160040160006101000a81548160ff02191690831515021790555060a0820151816005019081611fdd9190613361565b5060c08201516006820190611ff29082613361565b5060e082015160078201906120079082613361565b506101008201516008820180546001600160a01b0319166001600160a01b03928316179055610120830151600983015561014090920151600a90910155604080516020808252600090820152918a169184917f183238f069007a4db17fb5dbf21390c9a4090ee459eac2bcf7c229ab5dc3e6019101611b62565b60008181526001602052604081206003810154600782015460088301546009840154600485018054879687968796606096879687968a968796879690958795869560ff80851696610100909504169460058a019360068b01936001600160a01b0390911692909186906105af90613294565b6001602081905260009182526040909120805491810154600282015460038301546004840180549394929360ff808416946101009094041692919061213790613294565b80601f016020809104026020016040519081016040528092919081815260200182805461216390613294565b80156121b05780601f10612185576101008083540402835291602001916121b0565b820191906000526020600020905b81548152906001019060200180831161219357829003601f168201915b5050505050908060050180546121c590613294565b80601f01602080910402602001604051908101604052809291908181526020018280546121f190613294565b801561223e5780601f106122135761010080835404028352916020019161223e565b820191906000526020600020905b81548152906001019060200180831161222157829003601f168201915b50505050509080600601805461225390613294565b80601f016020809104026020016040519081016040528092919081815260200182805461227f90613294565b80156122cc5780601f106122a1576101008083540402835291602001916122cc565b820191906000526020600020905b8154815290600101906020018083116122af57829003601f168201915b505050506007830154600884015460099094015492936001600160a01b03909116929091508b565b600b546001600160a01b031633146123595760405162461bcd60e51b815260206004820152602260248201527f4f6e6c792076657269666965722063616e2070726f6365737320726571756573604482015261747360f01b60648201526084016109ee565b6000828152600260205260409020600501546001600160a01b03166123b95760405162461bcd60e51b815260206004820152601660248201527514995c5d595cdd08191bd95cc81b9bdd08195e1a5cdd60521b60448201526064016109ee565b60008281526002602081905260409091200154610100900460ff16156124215760405162461bcd60e51b815260206004820152601960248201527f5265717565737420616c72656164792070726f6365737365640000000000000060448201526064016109ee565b600082815260026020819052604091829020908101805461ff00198515151661ffff19909116176101001790556006810180546001600160a01b0319163390811790915542600890920191909155905183907fc9309abbb89b12a5d283fc9433c646c28705d50dde4b7b60b6c4fcd0d7bf0809906124a490851515815260200190565b60405180910390a35050565b606080606060008060008060008060008060008060008e8152602001908152602001600020905080600501816006018260070160008060008660040160009054906101000a900460ff168760040160019054906101000a900460ff168860080160009054906101000a90046001600160a01b031689600901548a600a01548a805461253a90613294565b80601f016020809104026020016040519081016040528092919081815260200182805461256690613294565b80156125b35780601f10612588576101008083540402835291602001916125b3565b820191906000526020600020905b81548152906001019060200180831161259657829003601f168201915b50505050509a508980546125c690613294565b80601f01602080910402602001604051908101604052809291908181526020018280546125f290613294565b801561263f5780601f106126145761010080835404028352916020019161263f565b820191906000526020600020905b81548152906001019060200180831161262257829003601f168201915b5050505050995088805461265290613294565b80601f016020809104026020016040519081016040528092919081815260200182805461267e90613294565b80156126cb5780601f106126a0576101008083540402835291602001916126cb565b820191906000526020600020905b8154815290600101906020018083116126ae57829003601f168201915b505050505098509b509b509b509b509b509b509b509b509b509b509b505091939597999b90929496989a50565b600061270683836004612745565b90505b92915050565b60006127098263ffffffff16600461286e565b600061272e823061292f565b5090565b600061273e838361292f565b5090919050565b7f9e7b61f58c47dc699ac88507c4f5bb9f121c03808c5676a8078fe583e46497015460405163196d0b9b60e01b81526000917f9e7b61f58c47dc699ac88507c4f5bb9f121c03808c5676a8078fe583e4649700916001600160a01b039091169063196d0b9b906127bf908890339089908990600401613469565b6020604051808303816000875af11580156127de573d6000803e3d6000fd5b505050506040513d601f19601f8201168201806040525081019061280291906134a2565b8154604051630f8e573b60e21b8152600481018390523360248201529193506001600160a01b031690633e395cec90604401600060405180830381600087803b15801561284e57600080fd5b505af1158015612862573d6000803e3d6000fd5b50505050509392505050565b7f9e7b61f58c47dc699ac88507c4f5bb9f121c03808c5676a8078fe583e464970154604051639cd07acb60e01b81526000917f9e7b61f58c47dc699ac88507c4f5bb9f121c03808c5676a8078fe583e4649700916001600160a01b0390911690639cd07acb906128e490879087906004016134bb565b6020604051808303816000875af1158015612903573d6000803e3d6000fd5b505050506040513d601f19601f8201168201806040525081019061292791906134a2565b949350505050565b60007f9e7b61f58c47dc699ac88507c4f5bb9f121c03808c5676a8078fe583e46497008054604051635ca4b5b160e11b8152600481018690526001600160a01b03858116602483015292935091169063b9496b6290604401600060405180830381600087803b1580156129a157600080fd5b505af11580156129b5573d6000803e3d6000fd5b50505050505050565b6000602082840312156129d057600080fd5b5035919050565b6000815180845260005b818110156129fd576020818501810151868301820152016129e1565b506000602082860101526020601f19601f83011685010191505092915050565b60006101408c83528b60208401528a60408401528915156060840152806080840152612a4b8184018a6129d7565b905082810360a0840152612a5f81896129d7565b905082810360c0840152612a7381886129d7565b6001600160a01b039690961660e0840152505061010081019290925261012090910152979650505050505050565b600061014060ff8d16835260ff8c16602084015260ff8b1660408401528915156060840152806080840152612a4b8184018a6129d7565b80356001600160a01b0381168114612aef57600080fd5b919050565b600060208284031215612b0657600080fd5b61270682612ad8565b600061012060ff8c1683528a151560208401528915156040840152806060840152612b3c8184018a6129d7565b90508281036080840152612b5081896129d7565b6001600160a01b0397881660a08501529590961660c08301525060e0810192909252610100909101529695505050505050565b634e487b7160e01b600052604160045260246000fd5b600082601f830112612baa57600080fd5b813567ffffffffffffffff80821115612bc557612bc5612b83565b604051601f8301601f19908116603f01168101908282118183101715612bed57612bed612b83565b81604052838152866020858801011115612c0657600080fd5b836020870160208301376000602085830101528094505050505092915050565b60008083601f840112612c3857600080fd5b50813567ffffffffffffffff811115612c5057600080fd5b602083019150836020828501011115612c6857600080fd5b9250929050565b60008060008060008060008060e0898b031215612c8b57600080fd5b612c9489612ad8565b9750602089013567ffffffffffffffff80821115612cb157600080fd5b612cbd8c838d01612b99565b985060408b0135915080821115612cd357600080fd5b612cdf8c838d01612b99565b975060608b0135915080821115612cf557600080fd5b612d018c838d01612b99565b965060808b0135955060a08b0135945060c08b0135915080821115612d2557600080fd5b50612d328b828c01612c26565b999c989b5096995094979396929594505050565b60006101408c83528b60208401528a151560408401528915156060840152806080840152612d768184018a6129d7565b905082810360a0840152612d8a81896129d7565b6001600160a01b0397881660c08501529590961660e08301525061010081019290925261012090910152979650505050505050565b60006101408c83528b60208401528a151560408401528915156060840152806080840152612a4b8184018a6129d7565b60008060008060008060a08789031215612e0857600080fd5b863567ffffffffffffffff80821115612e2057600080fd5b612e2c8a838b01612b99565b97506020890135915080821115612e4257600080fd5b612e4e8a838b01612b99565b96506040890135915080821115612e6457600080fd5b612e708a838b01612b99565b9550606089013594506080890135915080821115612e8d57600080fd5b50612e9a89828a01612c26565b979a9699509497509295939492505050565b60006101608d83528c60208401528b60408401528a606084015289151560808401528060a0840152612ee08184018a6129d7565b905082810360c0840152612ef481896129d7565b905082810360e0840152612f0881886129d7565b6001600160a01b039690961661010084015250506101208101929092526101409091015298975050505050505050565b60006101808e83528d60208401528c60408401528b60608401528a1515608084015289151560a08401528060c0840152612f748184018a6129d7565b905082810360e0840152612f8881896129d7565b9050828103610100840152612f9d81886129d7565b6001600160a01b03969096166101208401525050610140810192909252610160909101529998505050505050505050565b60008060408385031215612fe157600080fd5b612fea83612ad8565b946020939093013593505050565b60008060008060006080868803121561301057600080fd5b853567ffffffffffffffff8082111561302857600080fd5b61303489838a01612b99565b9650602088013591508082111561304a57600080fd5b61305689838a01612b99565b955060408801359450606088013591508082111561307357600080fd5b5061308088828901612c26565b969995985093965092949392505050565b60006101608d83528c60208401528b60408401528060608401526130b78184018c6129d7565b905082810360808401526130cb818b6129d7565b905082810360a08401526130df818a6129d7565b6001600160a01b039890981660c0840152505093151560e0850152911515610100840152610120830152610140909101529695505050505050565b60008060008060006080868803121561313257600080fd5b61313b86612ad8565b9450602086013567ffffffffffffffff8082111561304a57600080fd5b600061014060ff8d16835260ff8c1660208401528a151560408401528915156060840152806080840152612a4b8184018a6129d7565b60006101608d83528c60208401528b60408401528a1515606084015289151560808401528060a0840152612ee08184018a6129d7565b600080604083850312156131d757600080fd5b82359150602083013580151581146131ee57600080fd5b809150509250929050565b600061016080835261320d8184018f6129d7565b90508281036020840152613221818e6129d7565b90508281036040840152613235818d6129d7565b91505060ff8a16606083015260ff8916608083015260ff881660a083015286151560c083015285151560e08301526132796101008301866001600160a01b03169052565b61012082019390935261014001529998505050505050505050565b600181811c908216806132a857607f821691505b6020821081036132c857634e487b7160e01b600052602260045260246000fd5b50919050565b634e487b7160e01b600052601160045260246000fd5b6000600182016132f6576132f66132ce565b5060010190565b80820180821115612709576127096132ce565b601f82111561335c576000816000526020600020601f850160051c810160208610156133395750805b601f850160051c820191505b8181101561335857828155600101613345565b5050505b505050565b815167ffffffffffffffff81111561337b5761337b612b83565b61338f816133898454613294565b84613310565b602080601f8311600181146133c457600084156133ac5750858301515b600019600386901b1c1916600185901b178555613358565b600085815260208120601f198616915b828110156133f3578886015182559484019460019091019084016133d4565b50858210156134115787850151600019600388901b60f8161c191681555b5050505050600190811b01905550565b60208152600061270660208301846129d7565b81810381811115612709576127096132ce565b6054811061346557634e487b7160e01b600052602160045260246000fd5b9052565b8481526001600160a01b0384166020820152608060408201819052600090613493908301856129d7565b9050611b6e6060830184613447565b6000602082840312156134b457600080fd5b5051919050565b828152604081016134cf6020830184613447565b939250505056fea26469706673582212205fb19dd0eae9c64d290489cf821370b88a77d2b6638aae263f733f6791fd70e864736f6c63430008180033",
  "linkReferences": {},
  "deployedLinkReferences": {}
}